{
  "address": "0x962311BAF97E6E703f219aE251A181Fb8Cb9F258",
  "abi": [
    {
      "type": "constructor",
      "inputs": [
        {
          "name": "_name",
          "type": "string",
          "internalType": "string"
        },
        {
          "name": "_symbol",
          "type": "string",
          "internalType": "string"
        },
        {
          "name": "_layerZeroEndpoint",
          "type": "address",
          "internalType": "address"
        },
        {
          "name": "_owner",
          "type": "address",
          "internalType": "address"
        }
      ],
      "stateMutability": "nonpayable"
    },
    {
      "type": "receive",
      "stateMutability": "payable"
    },
    {
      "type": "function",
      "name": "SEND",
      "inputs": [],
      "outputs": [
        {
          "name": "",
          "type": "uint16",
          "internalType": "uint16"
        }
      ],
      "stateMutability": "view"
    },
    {
      "type": "function",
      "name": "SEND_AND_CALL",
      "inputs": [],
      "outputs": [
        {
          "name": "",
          "type": "uint16",
          "internalType": "uint16"
        }
      ],
      "stateMutability": "view"
    },
    {
      "type": "function",
      "name": "allowInitializePath",
      "inputs": [
        {
          "name": "origin",
          "type": "tuple",
          "internalType": "struct Origin",
          "components": [
            {
              "name": "srcEid",
              "type": "uint32",
              "internalType": "uint32"
            },
            {
              "name": "sender",
              "type": "bytes32",
              "internalType": "bytes32"
            },
            {
              "name": "nonce",
              "type": "uint64",
              "internalType": "uint64"
            }
          ]
        }
      ],
      "outputs": [
        {
          "name": "",
          "type": "bool",
          "internalType": "bool"
        }
      ],
      "stateMutability": "view"
    },
    {
      "type": "function",
      "name": "allowance",
      "inputs": [
        {
          "name": "owner",
          "type": "address",
          "internalType": "address"
        },
        {
          "name": "spender",
          "type": "address",
          "internalType": "address"
        }
      ],
      "outputs": [
        {
          "name": "",
          "type": "uint256",
          "internalType": "uint256"
        }
      ],
      "stateMutability": "view"
    },
    {
      "type": "function",
      "name": "approvalRequired",
      "inputs": [],
      "outputs": [
        {
          "name": "",
          "type": "bool",
          "internalType": "bool"
        }
      ],
      "stateMutability": "pure"
    },
    {
      "type": "function",
      "name": "approve",
      "inputs": [
        {
          "name": "spender",
          "type": "address",
          "internalType": "address"
        },
        {
          "name": "amount",
          "type": "uint256",
          "internalType": "uint256"
        }
      ],
      "outputs": [
        {
          "name": "",
          "type": "bool",
          "internalType": "bool"
        }
      ],
      "stateMutability": "nonpayable"
    },
    {
      "type": "function",
      "name": "balanceOf",
      "inputs": [
        {
          "name": "account",
          "type": "address",
          "internalType": "address"
        }
      ],
      "outputs": [
        {
          "name": "",
          "type": "uint256",
          "internalType": "uint256"
        }
      ],
      "stateMutability": "view"
    },
    {
      "type": "function",
      "name": "combineOptions",
      "inputs": [
        {
          "name": "_eid",
          "type": "uint32",
          "internalType": "uint32"
        },
        {
          "name": "_msgType",
          "type": "uint16",
          "internalType": "uint16"
        },
        {
          "name": "_extraOptions",
          "type": "bytes",
          "internalType": "bytes"
        }
      ],
      "outputs": [
        {
          "name": "",
          "type": "bytes",
          "internalType": "bytes"
        }
      ],
      "stateMutability": "view"
    },
    {
      "type": "function",
      "name": "composeMsgSender",
      "inputs": [],
      "outputs": [
        {
          "name": "sender",
          "type": "address",
          "internalType": "address"
        }
      ],
      "stateMutability": "view"
    },
    {
      "type": "function",
      "name": "decimalConversionRate",
      "inputs": [],
      "outputs": [
        {
          "name": "",
          "type": "uint256",
          "internalType": "uint256"
        }
      ],
      "stateMutability": "view"
    },
    {
      "type": "function",
      "name": "decimals",
      "inputs": [],
      "outputs": [
        {
          "name": "",
          "type": "uint8",
          "internalType": "uint8"
        }
      ],
      "stateMutability": "view"
    },
    {
      "type": "function",
      "name": "decreaseAllowance",
      "inputs": [
        {
          "name": "spender",
          "type": "address",
          "internalType": "address"
        },
        {
          "name": "subtractedValue",
          "type": "uint256",
          "internalType": "uint256"
        }
      ],
      "outputs": [
        {
          "name": "",
          "type": "bool",
          "internalType": "bool"
        }
      ],
      "stateMutability": "nonpayable"
    },
    {
      "type": "function",
      "name": "deposit",
      "inputs": [],
      "outputs": [],
      "stateMutability": "payable"
    },
    {
      "type": "function",
      "name": "endpoint",
      "inputs": [],
      "outputs": [
        {
          "name": "",
          "type": "address",
          "internalType": "contract ILayerZeroEndpointV2"
        }
      ],
      "stateMutability": "view"
    },
    {
      "type": "function",
      "name": "enforcedOptions",
      "inputs": [
        {
          "name": "eid",
          "type": "uint32",
          "internalType": "uint32"
        },
        {
          "name": "msgType",
          "type": "uint16",
          "internalType": "uint16"
        }
      ],
      "outputs": [
        {
          "name": "enforcedOption",
          "type": "bytes",
          "internalType": "bytes"
        }
      ],
      "stateMutability": "view"
    },
    {
      "type": "function",
      "name": "increaseAllowance",
      "inputs": [
        {
          "name": "spender",
          "type": "address",
          "internalType": "address"
        },
        {
          "name": "addedValue",
          "type": "uint256",
          "internalType": "uint256"
        }
      ],
      "outputs": [
        {
          "name": "",
          "type": "bool",
          "internalType": "bool"
        }
      ],
      "stateMutability": "nonpayable"
    },
    {
      "type": "function",
      "name": "isPeer",
      "inputs": [
        {
          "name": "_eid",
          "type": "uint32",
          "internalType": "uint32"
        },
        {
          "name": "_peer",
          "type": "bytes32",
          "internalType": "bytes32"
        }
      ],
      "outputs": [
        {
          "name": "",
          "type": "bool",
          "internalType": "bool"
        }
      ],
      "stateMutability": "view"
    },
    {
      "type": "function",
      "name": "lzReceive",
      "inputs": [
        {
          "name": "_origin",
          "type": "tuple",
          "internalType": "struct Origin",
          "components": [
            {
              "name": "srcEid",
              "type": "uint32",
              "internalType": "uint32"
            },
            {
              "name": "sender",
              "type": "bytes32",
              "internalType": "bytes32"
            },
            {
              "name": "nonce",
              "type": "uint64",
              "internalType": "uint64"
            }
          ]
        },
        {
          "name": "_guid",
          "type": "bytes32",
          "internalType": "bytes32"
        },
        {
          "name": "_message",
          "type": "bytes",
          "internalType": "bytes"
        },
        {
          "name": "_executor",
          "type": "address",
          "internalType": "address"
        },
        {
          "name": "_extraData",
          "type": "bytes",
          "internalType": "bytes"
        }
      ],
      "outputs": [],
      "stateMutability": "payable"
    },
    {
      "type": "function",
      "name": "lzReceiveAndRevert",
      "inputs": [
        {
          "name": "_packets",
          "type": "tuple[]",
          "internalType": "struct InboundPacket[]",
          "components": [
            {
              "name": "origin",
              "type": "tuple",
              "internalType": "struct Origin",
              "components": [
                {
                  "name": "srcEid",
                  "type": "uint32",
                  "internalType": "uint32"
                },
                {
                  "name": "sender",
                  "type": "bytes32",
                  "internalType": "bytes32"
                },
                {
                  "name": "nonce",
                  "type": "uint64",
                  "internalType": "uint64"
                }
              ]
            },
            {
              "name": "dstEid",
              "type": "uint32",
              "internalType": "uint32"
            },
            {
              "name": "receiver",
              "type": "address",
              "internalType": "address"
            },
            {
              "name": "guid",
              "type": "bytes32",
              "internalType": "bytes32"
            },
            {
              "name": "value",
              "type": "uint256",
              "internalType": "uint256"
            },
            {
              "name": "executor",
              "type": "address",
              "internalType": "address"
            },
            {
              "name": "message",
              "type": "bytes",
              "internalType": "bytes"
            },
            {
              "name": "extraData",
              "type": "bytes",
              "internalType": "bytes"
            }
          ]
        }
      ],
      "outputs": [],
      "stateMutability": "payable"
    },
    {
      "type": "function",
      "name": "lzReceiveSimulate",
      "inputs": [
        {
          "name": "_origin",
          "type": "tuple",
          "internalType": "struct Origin",
          "components": [
            {
              "name": "srcEid",
              "type": "uint32",
              "internalType": "uint32"
            },
            {
              "name": "sender",
              "type": "bytes32",
              "internalType": "bytes32"
            },
            {
              "name": "nonce",
              "type": "uint64",
              "internalType": "uint64"
            }
          ]
        },
        {
          "name": "_guid",
          "type": "bytes32",
          "internalType": "bytes32"
        },
        {
          "name": "_message",
          "type": "bytes",
          "internalType": "bytes"
        },
        {
          "name": "_executor",
          "type": "address",
          "internalType": "address"
        },
        {
          "name": "_extraData",
          "type": "bytes",
          "internalType": "bytes"
        }
      ],
      "outputs": [],
      "stateMutability": "payable"
    },
    {
      "type": "function",
      "name": "msgInspector",
      "inputs": [],
      "outputs": [
        {
          "name": "",
          "type": "address",
          "internalType": "address"
        }
      ],
      "stateMutability": "view"
    },
    {
      "type": "function",
      "name": "name",
      "inputs": [],
      "outputs": [
        {
          "name": "",
          "type": "string",
          "internalType": "string"
        }
      ],
      "stateMutability": "view"
    },
    {
      "type": "function",
      "name": "nextNonce",
      "inputs": [
        {
          "name": "",
          "type": "uint32",
          "internalType": "uint32"
        },
        {
          "name": "",
          "type": "bytes32",
          "internalType": "bytes32"
        }
      ],
      "outputs": [
        {
          "name": "nonce",
          "type": "uint64",
          "internalType": "uint64"
        }
      ],
      "stateMutability": "view"
    },
    {
      "type": "function",
      "name": "oApp",
      "inputs": [],
      "outputs": [
        {
          "name": "",
          "type": "address",
          "internalType": "address"
        }
      ],
      "stateMutability": "view"
    },
    {
      "type": "function",
      "name": "oAppVersion",
      "inputs": [],
      "outputs": [
        {
          "name": "senderVersion",
          "type": "uint64",
          "internalType": "uint64"
        },
        {
          "name": "receiverVersion",
          "type": "uint64",
          "internalType": "uint64"
        }
      ],
      "stateMutability": "pure"
    },
    {
      "type": "function",
      "name": "oftVersion",
      "inputs": [],
      "outputs": [
        {
          "name": "interfaceId",
          "type": "bytes4",
          "internalType": "bytes4"
        },
        {
          "name": "version",
          "type": "uint64",
          "internalType": "uint64"
        }
      ],
      "stateMutability": "pure"
    },
    {
      "type": "function",
      "name": "owner",
      "inputs": [],
      "outputs": [
        {
          "name": "",
          "type": "address",
          "internalType": "address"
        }
      ],
      "stateMutability": "view"
    },
    {
      "type": "function",
      "name": "peers",
      "inputs": [
        {
          "name": "eid",
          "type": "uint32",
          "internalType": "uint32"
        }
      ],
      "outputs": [
        {
          "name": "peer",
          "type": "bytes32",
          "internalType": "bytes32"
        }
      ],
      "stateMutability": "view"
    },
    {
      "type": "function",
      "name": "preCrime",
      "inputs": [],
      "outputs": [
        {
          "name": "",
          "type": "address",
          "internalType": "address"
        }
      ],
      "stateMutability": "view"
    },
    {
      "type": "function",
      "name": "quoteOFT",
      "inputs": [
        {
          "name": "_sendParam",
          "type": "tuple",
          "internalType": "struct SendParam",
          "components": [
            {
              "name": "dstEid",
              "type": "uint32",
              "internalType": "uint32"
            },
            {
              "name": "to",
              "type": "bytes32",
              "internalType": "bytes32"
            },
            {
              "name": "amountLD",
              "type": "uint256",
              "internalType": "uint256"
            },
            {
              "name": "minAmountLD",
              "type": "uint256",
              "internalType": "uint256"
            },
            {
              "name": "extraOptions",
              "type": "bytes",
              "internalType": "bytes"
            },
            {
              "name": "composeMsg",
              "type": "bytes",
              "internalType": "bytes"
            },
            {
              "name": "oftCmd",
              "type": "bytes",
              "internalType": "bytes"
            }
          ]
        }
      ],
      "outputs": [
        {
          "name": "oftLimit",
          "type": "tuple",
          "internalType": "struct OFTLimit",
          "components": [
            {
              "name": "minAmountLD",
              "type": "uint256",
              "internalType": "uint256"
            },
            {
              "name": "maxAmountLD",
              "type": "uint256",
              "internalType": "uint256"
            }
          ]
        },
        {
          "name": "oftFeeDetails",
          "type": "tuple[]",
          "internalType": "struct OFTFeeDetail[]",
          "components": [
            {
              "name": "feeAmountLD",
              "type": "int256",
              "internalType": "int256"
            },
            {
              "name": "description",
              "type": "string",
              "internalType": "string"
            }
          ]
        },
        {
          "name": "oftReceipt",
          "type": "tuple",
          "internalType": "struct OFTReceipt",
          "components": [
            {
              "name": "amountSentLD",
              "type": "uint256",
              "internalType": "uint256"
            },
            {
              "name": "amountReceivedLD",
              "type": "uint256",
              "internalType": "uint256"
            }
          ]
        }
      ],
      "stateMutability": "view"
    },
    {
      "type": "function",
      "name": "quoteSend",
      "inputs": [
        {
          "name": "_sendParam",
          "type": "tuple",
          "internalType": "struct SendParam",
          "components": [
            {
              "name": "dstEid",
              "type": "uint32",
              "internalType": "uint32"
            },
            {
              "name": "to",
              "type": "bytes32",
              "internalType": "bytes32"
            },
            {
              "name": "amountLD",
              "type": "uint256",
              "internalType": "uint256"
            },
            {
              "name": "minAmountLD",
              "type": "uint256",
              "internalType": "uint256"
            },
            {
              "name": "extraOptions",
              "type": "bytes",
              "internalType": "bytes"
            },
            {
              "name": "composeMsg",
              "type": "bytes",
              "internalType": "bytes"
            },
            {
              "name": "oftCmd",
              "type": "bytes",
              "internalType": "bytes"
            }
          ]
        },
        {
          "name": "_payInLzToken",
          "type": "bool",
          "internalType": "bool"
        }
      ],
      "outputs": [
        {
          "name": "msgFee",
          "type": "tuple",
          "internalType": "struct MessagingFee",
          "components": [
            {
              "name": "nativeFee",
              "type": "uint256",
              "internalType": "uint256"
            },
            {
              "name": "lzTokenFee",
              "type": "uint256",
              "internalType": "uint256"
            }
          ]
        }
      ],
      "stateMutability": "view"
    },
    {
      "type": "function",
      "name": "renounceOwnership",
      "inputs": [],
      "outputs": [],
      "stateMutability": "nonpayable"
    },
    {
      "type": "function",
      "name": "send",
      "inputs": [
        {
          "name": "_sendParam",
          "type": "tuple",
          "internalType": "struct SendParam",
          "components": [
            {
              "name": "dstEid",
              "type": "uint32",
              "internalType": "uint32"
            },
            {
              "name": "to",
              "type": "bytes32",
              "internalType": "bytes32"
            },
            {
              "name": "amountLD",
              "type": "uint256",
              "internalType": "uint256"
            },
            {
              "name": "minAmountLD",
              "type": "uint256",
              "internalType": "uint256"
            },
            {
              "name": "extraOptions",
              "type": "bytes",
              "internalType": "bytes"
            },
            {
              "name": "composeMsg",
              "type": "bytes",
              "internalType": "bytes"
            },
            {
              "name": "oftCmd",
              "type": "bytes",
              "internalType": "bytes"
            }
          ]
        },
        {
          "name": "_fee",
          "type": "tuple",
          "internalType": "struct MessagingFee",
          "components": [
            {
              "name": "nativeFee",
              "type": "uint256",
              "internalType": "uint256"
            },
            {
              "name": "lzTokenFee",
              "type": "uint256",
              "internalType": "uint256"
            }
          ]
        },
        {
          "name": "_refundAddress",
          "type": "address",
          "internalType": "address"
        }
      ],
      "outputs": [
        {
          "name": "msgReceipt",
          "type": "tuple",
          "internalType": "struct MessagingReceipt",
          "components": [
            {
              "name": "guid",
              "type": "bytes32",
              "internalType": "bytes32"
            },
            {
              "name": "nonce",
              "type": "uint64",
              "internalType": "uint64"
            },
            {
              "name": "fee",
              "type": "tuple",
              "internalType": "struct MessagingFee",
              "components": [
                {
                  "name": "nativeFee",
                  "type": "uint256",
                  "internalType": "uint256"
                },
                {
                  "name": "lzTokenFee",
                  "type": "uint256",
                  "internalType": "uint256"
                }
              ]
            }
          ]
        },
        {
          "name": "oftReceipt",
          "type": "tuple",
          "internalType": "struct OFTReceipt",
          "components": [
            {
              "name": "amountSentLD",
              "type": "uint256",
              "internalType": "uint256"
            },
            {
              "name": "amountReceivedLD",
              "type": "uint256",
              "internalType": "uint256"
            }
          ]
        }
      ],
      "stateMutability": "payable"
    },
    {
      "type": "function",
      "name": "setDelegate",
      "inputs": [
        {
          "name": "_delegate",
          "type": "address",
          "internalType": "address"
        }
      ],
      "outputs": [],
      "stateMutability": "nonpayable"
    },
    {
      "type": "function",
      "name": "setEnforcedOptions",
      "inputs": [
        {
          "name": "_enforcedOptions",
          "type": "tuple[]",
          "internalType": "struct EnforcedOptionParam[]",
          "components": [
            {
              "name": "eid",
              "type": "uint32",
              "internalType": "uint32"
            },
            {
              "name": "msgType",
              "type": "uint16",
              "internalType": "uint16"
            },
            {
              "name": "options",
              "type": "bytes",
              "internalType": "bytes"
            }
          ]
        }
      ],
      "outputs": [],
      "stateMutability": "nonpayable"
    },
    {
      "type": "function",
      "name": "setMsgInspector",
      "inputs": [
        {
          "name": "_msgInspector",
          "type": "address",
          "internalType": "address"
        }
      ],
      "outputs": [],
      "stateMutability": "nonpayable"
    },
    {
      "type": "function",
      "name": "setPeer",
      "inputs": [
        {
          "name": "_eid",
          "type": "uint32",
          "internalType": "uint32"
        },
        {
          "name": "_peer",
          "type": "bytes32",
          "internalType": "bytes32"
        }
      ],
      "outputs": [],
      "stateMutability": "nonpayable"
    },
    {
      "type": "function",
      "name": "setPreCrime",
      "inputs": [
        {
          "name": "_preCrime",
          "type": "address",
          "internalType": "address"
        }
      ],
      "outputs": [],
      "stateMutability": "nonpayable"
    },
    {
      "type": "function",
      "name": "sharedDecimals",
      "inputs": [],
      "outputs": [
        {
          "name": "",
          "type": "uint8",
          "internalType": "uint8"
        }
      ],
      "stateMutability": "pure"
    },
    {
      "type": "function",
      "name": "symbol",
      "inputs": [],
      "outputs": [
        {
          "name": "",
          "type": "string",
          "internalType": "string"
        }
      ],
      "stateMutability": "view"
    },
    {
      "type": "function",
      "name": "token",
      "inputs": [],
      "outputs": [
        {
          "name": "",
          "type": "address",
          "internalType": "address"
        }
      ],
      "stateMutability": "pure"
    },
    {
      "type": "function",
      "name": "totalSupply",
      "inputs": [],
      "outputs": [
        {
          "name": "",
          "type": "uint256",
          "internalType": "uint256"
        }
      ],
      "stateMutability": "view"
    },
    {
      "type": "function",
      "name": "transfer",
      "inputs": [
        {
          "name": "to",
          "type": "address",
          "internalType": "address"
        },
        {
          "name": "amount",
          "type": "uint256",
          "internalType": "uint256"
        }
      ],
      "outputs": [
        {
          "name": "",
          "type": "bool",
          "internalType": "bool"
        }
      ],
      "stateMutability": "nonpayable"
    },
    {
      "type": "function",
      "name": "transferFrom",
      "inputs": [
        {
          "name": "from",
          "type": "address",
          "internalType": "address"
        },
        {
          "name": "to",
          "type": "address",
          "internalType": "address"
        },
        {
          "name": "amount",
          "type": "uint256",
          "internalType": "uint256"
        }
      ],
      "outputs": [
        {
          "name": "",
          "type": "bool",
          "internalType": "bool"
        }
      ],
      "stateMutability": "nonpayable"
    },
    {
      "type": "function",
      "name": "transferOwnership",
      "inputs": [
        {
          "name": "newOwner",
          "type": "address",
          "internalType": "address"
        }
      ],
      "outputs": [],
      "stateMutability": "nonpayable"
    },
    {
      "type": "function",
      "name": "withdraw",
      "inputs": [
        {
          "name": "_amount",
          "type": "uint256",
          "internalType": "uint256"
        }
      ],
      "outputs": [],
      "stateMutability": "nonpayable"
    },
    {
      "type": "event",
      "name": "Approval",
      "inputs": [
        {
          "name": "owner",
          "type": "address",
          "indexed": true,
          "internalType": "address"
        },
        {
          "name": "spender",
          "type": "address",
          "indexed": true,
          "internalType": "address"
        },
        {
          "name": "value",
          "type": "uint256",
          "indexed": false,
          "internalType": "uint256"
        }
      ],
      "anonymous": false
    },
    {
      "type": "event",
      "name": "Deposit",
      "inputs": [
        {
          "name": "_dst",
          "type": "address",
          "indexed": true,
          "internalType": "address"
        },
        {
          "name": "_amount",
          "type": "uint256",
          "indexed": false,
          "internalType": "uint256"
        }
      ],
      "anonymous": false
    },
    {
      "type": "event",
      "name": "EnforcedOptionSet",
      "inputs": [
        {
          "name": "_enforcedOptions",
          "type": "tuple[]",
          "indexed": false,
          "internalType": "struct EnforcedOptionParam[]",
          "components": [
            {
              "name": "eid",
              "type": "uint32",
              "internalType": "uint32"
            },
            {
              "name": "msgType",
              "type": "uint16",
              "internalType": "uint16"
            },
            {
              "name": "options",
              "type": "bytes",
              "internalType": "bytes"
            }
          ]
        }
      ],
      "anonymous": false
    },
    {
      "type": "event",
      "name": "MsgInspectorSet",
      "inputs": [
        {
          "name": "inspector",
          "type": "address",
          "indexed": false,
          "internalType": "address"
        }
      ],
      "anonymous": false
    },
    {
      "type": "event",
      "name": "OFTReceived",
      "inputs": [
        {
          "name": "guid",
          "type": "bytes32",
          "indexed": true,
          "internalType": "bytes32"
        },
        {
          "name": "srcEid",
          "type": "uint32",
          "indexed": false,
          "internalType": "uint32"
        },
        {
          "name": "toAddress",
          "type": "address",
          "indexed": true,
          "internalType": "address"
        },
        {
          "name": "amountReceivedLD",
          "type": "uint256",
          "indexed": false,
          "internalType": "uint256"
        }
      ],
      "anonymous": false
    },
    {
      "type": "event",
      "name": "OFTSent",
      "inputs": [
        {
          "name": "guid",
          "type": "bytes32",
          "indexed": true,
          "internalType": "bytes32"
        },
        {
          "name": "dstEid",
          "type": "uint32",
          "indexed": false,
          "internalType": "uint32"
        },
        {
          "name": "fromAddress",
          "type": "address",
          "indexed": true,
          "internalType": "address"
        },
        {
          "name": "amountSentLD",
          "type": "uint256",
          "indexed": false,
          "internalType": "uint256"
        },
        {
          "name": "amountReceivedLD",
          "type": "uint256",
          "indexed": false,
          "internalType": "uint256"
        }
      ],
      "anonymous": false
    },
    {
      "type": "event",
      "name": "OwnershipTransferred",
      "inputs": [
        {
          "name": "previousOwner",
          "type": "address",
          "indexed": true,
          "internalType": "address"
        },
        {
          "name": "newOwner",
          "type": "address",
          "indexed": true,
          "internalType": "address"
        }
      ],
      "anonymous": false
    },
    {
      "type": "event",
      "name": "PeerSet",
      "inputs": [
        {
          "name": "eid",
          "type": "uint32",
          "indexed": false,
          "internalType": "uint32"
        },
        {
          "name": "peer",
          "type": "bytes32",
          "indexed": false,
          "internalType": "bytes32"
        }
      ],
      "anonymous": false
    },
    {
      "type": "event",
      "name": "PreCrimeSet",
      "inputs": [
        {
          "name": "preCrimeAddress",
          "type": "address",
          "indexed": false,
          "internalType": "address"
        }
      ],
      "anonymous": false
    },
    {
      "type": "event",
      "name": "Transfer",
      "inputs": [
        {
          "name": "from",
          "type": "address",
          "indexed": true,
          "internalType": "address"
        },
        {
          "name": "to",
          "type": "address",
          "indexed": true,
          "internalType": "address"
        },
        {
          "name": "value",
          "type": "uint256",
          "indexed": false,
          "internalType": "uint256"
        }
      ],
      "anonymous": false
    },
    {
      "type": "event",
      "name": "Withdrawal",
      "inputs": [
        {
          "name": "_src",
          "type": "address",
          "indexed": true,
          "internalType": "address"
        },
        {
          "name": "_amount",
          "type": "uint256",
          "indexed": false,
          "internalType": "uint256"
        }
      ],
      "anonymous": false
    },
    {
      "type": "error",
      "name": "InsufficientBalance",
      "inputs": []
    },
    {
      "type": "error",
      "name": "InsufficientMessageValue",
      "inputs": []
    },
    {
      "type": "error",
      "name": "InvalidDelegate",
      "inputs": []
    },
    {
      "type": "error",
      "name": "InvalidEndpointCall",
      "inputs": []
    },
    {
      "type": "error",
      "name": "InvalidLocalDecimals",
      "inputs": []
    },
    {
      "type": "error",
      "name": "InvalidOptions",
      "inputs": [
        {
          "name": "options",
          "type": "bytes",
          "internalType": "bytes"
        }
      ]
    },
    {
      "type": "error",
      "name": "LzTokenUnavailable",
      "inputs": []
    },
    {
      "type": "error",
      "name": "NoPeer",
      "inputs": [
        {
          "name": "eid",
          "type": "uint32",
          "internalType": "uint32"
        }
      ]
    },
    {
      "type": "error",
      "name": "NotEnoughNative",
      "inputs": [
        {
          "name": "msgValue",
          "type": "uint256",
          "internalType": "uint256"
        }
      ]
    },
    {
      "type": "error",
      "name": "OnlyEndpoint",
      "inputs": [
        {
          "name": "addr",
          "type": "address",
          "internalType": "address"
        }
      ]
    },
    {
      "type": "error",
      "name": "OnlyPeer",
      "inputs": [
        {
          "name": "eid",
          "type": "uint32",
          "internalType": "uint32"
        },
        {
          "name": "sender",
          "type": "bytes32",
          "internalType": "bytes32"
        }
      ]
    },
    {
      "type": "error",
      "name": "OnlySelf",
      "inputs": []
    },
    {
      "type": "error",
      "name": "SimulationResult",
      "inputs": [
        {
          "name": "result",
          "type": "bytes",
          "internalType": "bytes"
        }
      ]
    },
    {
      "type": "error",
      "name": "SlippageExceeded",
      "inputs": [
        {
          "name": "amountLD",
          "type": "uint256",
          "internalType": "uint256"
        },
        {
          "name": "minAmountLD",
          "type": "uint256",
          "internalType": "uint256"
        }
      ]
    },
    {
      "type": "error",
      "name": "WithdrawalFailed",
      "inputs": []
    }
  ],
  "bytecode": {
    "object": "0x60c060405234801561001057600080fd5b50604051613c6f380380613c6f83398101604081905261002f9161027e565b838383838383601284848181818161004633610154565b6001600160a01b03808316608052811661007357604051632d618d8160e21b815260040160405180910390fd5b60805160405163ca5eb5e160e01b81526001600160a01b0383811660048301529091169063ca5eb5e190602401600060405180830381600087803b1580156100ba57600080fd5b505af11580156100ce573d6000803e3d6000fd5b50505050505050506100e46101a460201b60201c565b60ff168360ff16101561010a576040516301e9714b60e41b815260040160405180910390fd5b61011560068461031e565b61012090600a610424565b60a0525050600160055550600961013783826104c3565b50600a61014482826104c3565b5050505050505050505050610581565b600080546001600160a01b038381166001600160a01b0319831681178455604051919092169283917f8be0079c531659141344cd1fd0a4f28419497f9722a3daafe3b4186f6b6457e09190a35050565b600690565b634e487b7160e01b600052604160045260246000fd5b600082601f8301126101d057600080fd5b81516001600160401b038111156101e9576101e96101a9565b604051601f8201601f19908116603f011681016001600160401b0381118282101715610217576102176101a9565b60405281815283820160200185101561022f57600080fd5b60005b8281101561024e57602081860181015183830182015201610232565b506000918101602001919091529392505050565b80516001600160a01b038116811461027957600080fd5b919050565b6000806000806080858703121561029457600080fd5b84516001600160401b038111156102aa57600080fd5b6102b6878288016101bf565b602087015190955090506001600160401b038111156102d457600080fd5b6102e0878288016101bf565b9350506102ef60408601610262565b91506102fd60608601610262565b905092959194509250565b634e487b7160e01b600052601160045260246000fd5b60ff828116828216039081111561033757610337610308565b92915050565b6001815b60018411156103785780850481111561035c5761035c610308565b600184161561036a57908102905b60019390931c928002610341565b935093915050565b60008261038f57506001610337565b8161039c57506000610337565b81600181146103b257600281146103bc576103d8565b6001915050610337565b60ff8411156103cd576103cd610308565b50506001821b610337565b5060208310610133831016604e8410600b84101617156103fb575081810a610337565b610408600019848461033d565b806000190482111561041c5761041c610308565b029392505050565b600061043360ff841683610380565b9392505050565b600181811c9082168061044e57607f821691505b60208210810361046e57634e487b7160e01b600052602260045260246000fd5b50919050565b601f8211156104be57806000526020600020601f840160051c8101602085101561049b5750805b601f840160051c820191505b818110156104bb57600081556001016104a7565b50505b505050565b81516001600160401b038111156104dc576104dc6101a9565b6104f0816104ea845461043a565b84610474565b6020601f821160018114610524576000831561050c5750848201515b600019600385901b1c1916600184901b1784556104bb565b600084815260208120601f198516915b828110156105545787850151825560209485019460019092019101610534565b50848210156105725786840151600019600387901b60f8161c191681555b50505050600190811b01905550565b60805160a0516136836105ec6000396000818161067a01528181612235015281816122aa01526123da01526000818161055901528181610a40015281816114e00152818161199701528181611fac01528181612159015281816124a6015261255d01526136836000f3fe6080604052600436106102815760003560e01c80637d25a05e1161014f578063bb0b6a53116100c1578063d0e30db01161007a578063d0e30db0146107e4578063d4243885146107ec578063dd62ed3e1461080c578063f2fde38b1461082c578063fc0c546a1461084c578063ff7bd03d1461086057600080fd5b8063bb0b6a5314610730578063bc70b3541461075d578063bd815db01461077d578063c7c7f5b314610790578063ca5eb5e1146107b1578063d045a0dc146107d157600080fd5b80639f68b964116101135780639f68b9641461069c578063a457c2d7146106b0578063a9059cbb146106d0578063b731ea0a146106f0578063b92d0eff146104dd578063b98bd0701461071057600080fd5b80637d25a05e146105e6578063857749b0146106215780638da5cb5b1461063557806395d89b4114610653578063963efcaa1461066857600080fd5b80632e1a7d4d116101f35780635535d461116101ac5780635535d461146104f05780635a0dfe4d146105105780635e280f11146105475780636fc1b31e1461057b57806370a082311461059b578063715018a6146105d157600080fd5b80632e1a7d4d1461042e578063313ce5671461044e5780633400288b1461047057806339509351146104905780633b6f743b146104b057806352ae2879146104dd57600080fd5b8063134d4f2511610245578063134d4f251461036a578063156a0d0f1461039257806317442b70146103b957806318160ddd146103da5780631f5e1334146103f957806323b872dd1461040e57600080fd5b806306fdde0314610295578063095ea7b3146102c05780630d35b415146102f0578063111ecdad1461031f57806313137d651461035757600080fd5b366102905761028e610880565b005b600080fd5b3480156102a157600080fd5b506102aa6108c1565b6040516102b7919061283a565b60405180910390f35b3480156102cc57600080fd5b506102e06102db366004612862565b610953565b60405190151581526020016102b7565b3480156102fc57600080fd5b5061031061030b3660046128a6565b61096d565b6040516102b7939291906128da565b34801561032b57600080fd5b5060045461033f906001600160a01b031681565b6040516001600160a01b0390911681526020016102b7565b61028e6103653660046129d1565b610a3e565b34801561037657600080fd5b5061037f600281565b60405161ffff90911681526020016102b7565b34801561039e57600080fd5b506040805162b9270b60e21b815260016020820152016102b7565b3480156103c557600080fd5b506040805160018082526020820152016102b7565b3480156103e657600080fd5b506008545b6040519081526020016102b7565b34801561040557600080fd5b5061037f600181565b34801561041a57600080fd5b506102e0610429366004612a72565b610afe565b34801561043a57600080fd5b5061028e610449366004612ab3565b610b24565b34801561045a57600080fd5b5060125b60405160ff90911681526020016102b7565b34801561047c57600080fd5b5061028e61048b366004612ae5565b610c12565b34801561049c57600080fd5b506102e06104ab366004612862565b610c70565b3480156104bc57600080fd5b506104d06104cb366004612b0f565b610c92565b6040516102b79190612b60565b3480156104e957600080fd5b503061033f565b3480156104fc57600080fd5b506102aa61050b366004612b89565b610cf9565b34801561051c57600080fd5b506102e061052b366004612ae5565b63ffffffff919091166000908152600160205260409020541490565b34801561055357600080fd5b5061033f7f000000000000000000000000000000000000000000000000000000000000000081565b34801561058757600080fd5b5061028e610596366004612bbc565b610d9e565b3480156105a757600080fd5b506103eb6105b6366004612bbc565b6001600160a01b031660009081526006602052604090205490565b3480156105dd57600080fd5b5061028e610dfb565b3480156105f257600080fd5b50610609610601366004612ae5565b600092915050565b6040516001600160401b0390911681526020016102b7565b34801561062d57600080fd5b50600661045e565b34801561064157600080fd5b506000546001600160a01b031661033f565b34801561065f57600080fd5b506102aa610e0f565b34801561067457600080fd5b506103eb7f000000000000000000000000000000000000000000000000000000000000000081565b3480156106a857600080fd5b5060006102e0565b3480156106bc57600080fd5b506102e06106cb366004612862565b610e1e565b3480156106dc57600080fd5b506102e06106eb366004612862565b610ea4565b3480156106fc57600080fd5b5060025461033f906001600160a01b031681565b34801561071c57600080fd5b5061028e61072b366004612c1d565b610eb2565b34801561073c57600080fd5b506103eb61074b366004612c5e565b60016020526000908152604090205481565b34801561076957600080fd5b506102aa610778366004612c79565b611013565b61028e61078b366004612c1d565b61118e565b6107a361079e366004612cd9565b611318565b6040516102b7929190612d46565b3480156107bd57600080fd5b5061028e6107cc366004612bbc565b6114b9565b61028e6107df3660046129d1565b61153f565b61028e610880565b3480156107f857600080fd5b5061028e610807366004612bbc565b61156e565b34801561081857600080fd5b506103eb610827366004612d98565b6115c4565b34801561083857600080fd5b5061028e610847366004612bbc565b6115ef565b34801561085857600080fd5b50600061033f565b34801561086c57600080fd5b506102e061087b366004612dc6565b611665565b61088a333461169b565b60405134815233907fe1fffcc4923d04b559f4d29a8bfc6cda04eb5b0d3c460751c2402c5c5cc9109c9060200160405180910390a2565b6060600980546108d090612de2565b80601f01602080910402602001604051908101604052809291908181526020018280546108fc90612de2565b80156109495780601f1061091e57610100808354040283529160200191610949565b820191906000526020600020905b81548152906001019060200180831161092c57829003601f168201915b5050505050905090565b60003361096181858561175d565b60019150505b92915050565b604080518082019091526000808252602082015260606109a0604051806040016040528060008152602001600081525090565b60408051808201825260008082526001600160401b036020808401829052845183815290810190945291955091826109fb565b6040805180820190915260008152606060208201528152602001906001900390816109d35790505b509350600080610a20604089013560608a0135610a1b60208c018c612c5e565b611882565b60408051808201909152918252602082015296989597505050505050565b7f00000000000000000000000000000000000000000000000000000000000000006001600160a01b03163314610a8e576040516391ac5e4f60e01b81523360048201526024015b60405180910390fd5b60208701803590610aa890610aa3908a612c5e565b6118c6565b14610ae657610aba6020880188612c5e565b60405163309afaf360e21b815263ffffffff909116600482015260208801356024820152604401610a85565b610af587878787878787611902565b50505050505050565b600033610b0c858285611a69565b610b17858585611ae3565b60019150505b9392505050565b610b2c611c8e565b33600090815260066020526040902054811115610b5c57604051631e9acf1760e31b815260040160405180910390fd5b610b663382611ce7565b604051600090339083908381818185875af1925050503d8060008114610ba8576040519150601f19603f3d011682016040523d82523d6000602084013e610bad565b606091505b5050905080610bcf576040516327fcd9d160e01b815260040160405180910390fd5b60405182815233907f7fcf532c15f0a6db0bd6d0e038bea71d30d808c7d98cb3bf7268a95bf5081b659060200160405180910390a250610c0f6001600555565b50565b610c1a611e18565b63ffffffff8216600081815260016020908152604091829020849055815192835282018390527f238399d427b947898edb290f5ff0f9109849b1c3ba196a42e35f00c50a54b98b91015b60405180910390a15050565b600033610961818585610c8383836115c4565b610c8d9190612e42565b61175d565b60408051808201909152600080825260208201526000610cc260408501356060860135610a1b6020880188612c5e565b915050600080610cd28684611e72565b9092509050610cef610ce76020880188612c5e565b838388611f96565b9695505050505050565b600360209081526000928352604080842090915290825290208054610d1d90612de2565b80601f0160208091040260200160405190810160405280929190818152602001828054610d4990612de2565b8015610d965780601f10610d6b57610100808354040283529160200191610d96565b820191906000526020600020905b815481529060010190602001808311610d7957829003601f168201915b505050505081565b610da6611e18565b600480546001600160a01b0319166001600160a01b0383169081179091556040519081527ff0be4f1e87349231d80c36b33f9e8639658eeaf474014dee15a3e6a4d4414197906020015b60405180910390a150565b610e03611e18565b610e0d6000612077565b565b6060600a80546108d090612de2565b60003381610e2c82866115c4565b905083811015610e8c5760405162461bcd60e51b815260206004820152602560248201527f45524332303a2064656372656173656420616c6c6f77616e63652062656c6f77604482015264207a65726f60d81b6064820152608401610a85565b610e99828686840361175d565b506001949350505050565b600033610961818585611ae3565b610eba611e18565b60005b81811015610fe157610eff838383818110610eda57610eda612e55565b9050602002810190610eec9190612e6b565b610efa906040810190612e8b565b6120c7565b828282818110610f1157610f11612e55565b9050602002810190610f239190612e6b565b610f31906040810190612e8b565b60036000868686818110610f4757610f47612e55565b9050602002810190610f599190612e6b565b610f67906020810190612c5e565b63ffffffff1663ffffffff1681526020019081526020016000206000868686818110610f9557610f95612e55565b9050602002810190610fa79190612e6b565b610fb8906040810190602001612ed1565b61ffff168152602081019190915260400160002091610fd8919083612f33565b50600101610ebd565b507fbe4864a8e820971c0247f5992e2da559595f7bf076a21cb5928d443d2a13b6748282604051610c6492919061301b565b63ffffffff8416600090815260036020908152604080832061ffff8716845290915281208054606092919061104790612de2565b80601f016020809104026020016040519081016040528092919081815260200182805461107390612de2565b80156110c05780601f10611095576101008083540402835291602001916110c0565b820191906000526020600020905b8154815290600101906020018083116110a357829003601f168201915b5050505050905080516000036111105783838080601f0160208091040260200160405190810160405280939291908181526020018383808284376000920191909152509294506111869350505050565b6000839003611120579050611186565b600283106111695761113284846120c7565b806111408460028188613105565b6040516020016111529392919061312f565b604051602081830303815290604052915050611186565b8383604051639a6d49cd60e01b8152600401610a85929190613157565b949350505050565b60005b8181101561129757368383838181106111ac576111ac612e55565b90506020028101906111be919061316b565b90506111f16111d06020830183612c5e565b602083013563ffffffff919091166000908152600160205260409020541490565b6111fb575061128f565b3063d045a0dc60c08301358360a081013561121a610100830183612e8b565b61122b610100890160e08a01612bbc565b6112396101208a018a612e8b565b6040518963ffffffff1660e01b815260040161125b9796959493929190613197565b6000604051808303818588803b15801561127457600080fd5b505af1158015611288573d6000803e3d6000fd5b5050505050505b600101611191565b50336001600160a01b0316638e9e70996040518163ffffffff1660e01b8152600401600060405180830381865afa1580156112d6573d6000803e3d6000fd5b505050506040513d6000823e601f3d908101601f191682016040526112fe919081019061324d565b604051638351eea760e01b8152600401610a85919061283a565b6113206127a3565b60408051808201909152600080825260208201523360009081526006602052604081205460408051808201825287358152602080890135908201529192508701358210156113c45760408701356113773484612e42565b10156113965760405163588ea6ef60e01b815260040160405180910390fd5b60006113a68360408a01356132d8565b90506113b2338261169b565b6113bc81346132d8565b8252506113e7565b805134146113e7576040516304fb820960e51b8152346004820152602401610a85565b60008061140960408a013560608b013561140460208d018d612c5e565b612109565b9150915060008061141a8b84611e72565b909250905061143861142f60208d018d612c5e565b8383888d612126565b6040805180820190915285815260208082018690528251929a509098503391907f85496b760a4b7f8d66384b9df21b381f5d1b1e79f229a47aaf4c232edc2fe59a90611486908f018f612c5e565b6040805163ffffffff909216825260208201899052810187905260600160405180910390a3505050505050935093915050565b6114c1611e18565b60405163ca5eb5e160e01b81526001600160a01b0382811660048301527f0000000000000000000000000000000000000000000000000000000000000000169063ca5eb5e190602401600060405180830381600087803b15801561152457600080fd5b505af1158015611538573d6000803e3d6000fd5b5050505050565b33301461155f5760405163029a949d60e31b815260040160405180910390fd5b610af587878787878787610ae6565b611576611e18565b600280546001600160a01b0319166001600160a01b0383169081179091556040519081527fd48d879cef83a1c0bdda516f27b13ddb1b3f8bbac1c9e1511bb2a659c242776090602001610df0565b6001600160a01b03918216600090815260076020908152604080832093909416825291909152205490565b6115f7611e18565b6001600160a01b03811661165c5760405162461bcd60e51b815260206004820152602660248201527f4f776e61626c653a206e6577206f776e657220697320746865207a65726f206160448201526564647265737360d01b6064820152608401610a85565b610c0f81612077565b600060208201803590600190839061167d9086612c5e565b63ffffffff1681526020810191909152604001600020541492915050565b6001600160a01b0382166116f15760405162461bcd60e51b815260206004820152601f60248201527f45524332303a206d696e7420746f20746865207a65726f2061646472657373006044820152606401610a85565b80600860008282546117039190612e42565b90915550506001600160a01b0382166000818152600660209081526040808320805486019055518481527fddf252ad1be2c89b69c2b068fc378daa952ba7f163c4a11628f55a4df523b3ef910160405180910390a35b5050565b6001600160a01b0383166117bf5760405162461bcd60e51b8152602060048201526024808201527f45524332303a20617070726f76652066726f6d20746865207a65726f206164646044820152637265737360e01b6064820152608401610a85565b6001600160a01b0382166118205760405162461bcd60e51b815260206004820152602260248201527f45524332303a20617070726f766520746f20746865207a65726f206164647265604482015261737360f01b6064820152608401610a85565b6001600160a01b0383811660008181526007602090815260408083209487168084529482529182902085905590518481527f8c5be1e5ebec7d5bd14f71427d1e84f3dd0314c0f7b2291e5b200ac8c7c3b92591015b60405180910390a3505050565b60008061188e85612231565b9150819050838110156118be576040516371c4efed60e01b81526004810182905260248101859052604401610a85565b935093915050565b63ffffffff8116600090815260016020526040812054806109675760405163f6ff4fb760e01b815263ffffffff84166004820152602401610a85565b60006119146119118787612268565b90565b905060006119408261192e6119298a8a612280565b6122a3565b61193b60208d018d612c5e565b6122d8565b90506028861115611a0757600061197d61196060608c0160408d016132eb565b61196d60208d018d612c5e565b846119788c8c612356565b6123a1565b604051633e5ac80960e11b81529091506001600160a01b037f00000000000000000000000000000000000000000000000000000000000000001690637cb59012906119d39086908d906000908790600401613308565b600060405180830381600087803b1580156119ed57600080fd5b505af1158015611a01573d6000803e3d6000fd5b50505050505b6001600160a01b038216887fefed6d3500546b29533b128a29e3a94d70788727f0507505ac12eaf2e578fd9c611a4060208d018d612c5e565b6040805163ffffffff9092168252602082018690520160405180910390a3505050505050505050565b6000611a7584846115c4565b90506000198114611add5781811015611ad05760405162461bcd60e51b815260206004820152601d60248201527f45524332303a20696e73756666696369656e7420616c6c6f77616e63650000006044820152606401610a85565b611add848484840361175d565b50505050565b6001600160a01b038316611b475760405162461bcd60e51b815260206004820152602560248201527f45524332303a207472616e736665722066726f6d20746865207a65726f206164604482015264647265737360d81b6064820152608401610a85565b6001600160a01b038216611ba95760405162461bcd60e51b815260206004820152602360248201527f45524332303a207472616e7366657220746f20746865207a65726f206164647260448201526265737360e81b6064820152608401610a85565b6001600160a01b03831660009081526006602052604090205481811015611c215760405162461bcd60e51b815260206004820152602660248201527f45524332303a207472616e7366657220616d6f756e7420657863656564732062604482015265616c616e636560d01b6064820152608401610a85565b6001600160a01b0380851660008181526006602052604080822086860390559286168082529083902080548601905591517fddf252ad1be2c89b69c2b068fc378daa952ba7f163c4a11628f55a4df523b3ef90611c819086815260200190565b60405180910390a3611add565b600260055403611ce05760405162461bcd60e51b815260206004820152601f60248201527f5265656e7472616e637947756172643a207265656e7472616e742063616c6c006044820152606401610a85565b6002600555565b6001600160a01b038216611d475760405162461bcd60e51b815260206004820152602160248201527f45524332303a206275726e2066726f6d20746865207a65726f206164647265736044820152607360f81b6064820152608401610a85565b6001600160a01b03821660009081526006602052604090205481811015611dbb5760405162461bcd60e51b815260206004820152602260248201527f45524332303a206275726e20616d6f756e7420657863656564732062616c616e604482015261636560f01b6064820152608401610a85565b6001600160a01b03831660008181526006602090815260408083208686039055600880548790039055518581529192917fddf252ad1be2c89b69c2b068fc378daa952ba7f163c4a11628f55a4df523b3ef9101611875565b505050565b6000546001600160a01b03163314610e0d5760405162461bcd60e51b815260206004820181905260248201527f4f776e61626c653a2063616c6c6572206973206e6f7420746865206f776e65726044820152606401610a85565b6060806000611ecf8560200135611e88866123d3565b611e9560a0890189612e8b565b8080601f0160208091040260200160405190810160405280939291908181526020018383808284376000920191909152506123ff92505050565b9093509050600081611ee2576001611ee5565b60025b9050611f05611ef76020880188612c5e565b8261077860808a018a612e8b565b6004549093506001600160a01b031615611f8d576004805460405163043a78eb60e01b81526001600160a01b039091169163043a78eb91611f4a918891889101613339565b602060405180830381865afa158015611f67573d6000803e3d6000fd5b505050506040513d601f19601f82011682018060405250810190611f8b919061335e565b505b50509250929050565b60408051808201909152600080825260208201527f00000000000000000000000000000000000000000000000000000000000000006001600160a01b031663ddc28c586040518060a001604052808863ffffffff168152602001611ff9896118c6565b8152602001878152602001868152602001851515815250306040518363ffffffff1660e01b815260040161202e92919061337b565b6040805180830381865afa15801561204a573d6000803e3d6000fd5b505050506040513d601f19601f8201168201806040525081019061206e9190613442565b95945050505050565b600080546001600160a01b038381166001600160a01b0319831681178455604051919092169283917f8be0079c531659141344cd1fd0a4f28419497f9722a3daafe3b4186f6b6457e09190a35050565b60006120d66002828486613105565b6120df9161345e565b60f01c905060038114611e13578282604051639a6d49cd60e01b8152600401610a85929190613157565b600080612117858585611882565b90925090506118be3383611ce7565b61212e6127a3565b600061213d8460000151612479565b6020850151909150156121575761215784602001516124a2565b7f00000000000000000000000000000000000000000000000000000000000000006001600160a01b0316632637a450826040518060a001604052808b63ffffffff1681526020016121a78c6118c6565b81526020018a815260200189815260200160008960200151111515815250866040518463ffffffff1660e01b81526004016121e392919061337b565b60806040518083038185885af1158015612201573d6000803e3d6000fd5b50505050506040513d601f19601f820116820180604052508101906122269190613496565b979650505050505050565b60007f000000000000000000000000000000000000000000000000000000000000000061225e81846134ff565b6109679190613521565b60006122776020828486613105565b610b1d91613538565b6000612290602860208486613105565b61229991613556565b60c01c9392505050565b60006109677f00000000000000000000000000000000000000000000000000000000000000006001600160401b038416613521565b600080846001600160a01b03168460405160006040518083038185875af1925050503d8060008114612326576040519150601f19603f3d011682016040523d82523d6000602084013e61232b565b606091505b505090508061234d576040516327fcd9d160e01b815260040160405180910390fd5b50919392505050565b60606123658260288186613105565b8080601f016020809104026020016040519081016040528093929190818152602001838380828437600092019190915250929695505050505050565b6060848484846040516020016123ba949392919061358c565b6040516020818303038152906040529050949350505050565b60006109677f0000000000000000000000000000000000000000000000000000000000000000836134ff565b805160609015158061244857848460405160200161243492919091825260c01b6001600160c01b031916602082015260280190565b60405160208183030381529060405261246f565b8484338560405160200161245f94939291906135db565b6040516020818303038152906040525b9150935093915050565b60008134101561249e576040516304fb820960e51b8152346004820152602401610a85565b5090565b60007f00000000000000000000000000000000000000000000000000000000000000006001600160a01b031663e4fe1d946040518163ffffffff1660e01b8152600401602060405180830381865afa158015612502573d6000803e3d6000fd5b505050506040513d601f19601f82011682018060405250810190612526919061361e565b90506001600160a01b03811661254f576040516329b99a9560e11b815260040160405180910390fd5b6040805133602482018190527f00000000000000000000000000000000000000000000000000000000000000006001600160a01b03818116604485015260648085018890528551808603909101815260849094018552602080850180516001600160e01b03166323b872dd60e01b17905285518087019096528086527f5361666545524332303a206c6f772d6c6576656c2063616c6c206661696c65649086015261175994908616938791611add9186916000906126109084908490612690565b9050805160001480612631575080806020019051810190612631919061335e565b611e135760405162461bcd60e51b815260206004820152602a60248201527f5361666545524332303a204552433230206f7065726174696f6e20646964206e6044820152691bdd081cdd58d8d9595960b21b6064820152608401610a85565b6060611186848460008585600080866001600160a01b031685876040516126b7919061363b565b60006040518083038185875af1925050503d80600081146126f4576040519150601f19603f3d011682016040523d82523d6000602084013e6126f9565b606091505b5091509150612226878383876060831561277457825160000361276d576001600160a01b0385163b61276d5760405162461bcd60e51b815260206004820152601d60248201527f416464726573733a2063616c6c20746f206e6f6e2d636f6e74726163740000006044820152606401610a85565b5081611186565b61118683838151156127895781518083602001fd5b8060405162461bcd60e51b8152600401610a85919061283a565b60405180606001604052806000801916815260200160006001600160401b031681526020016127e5604051806040016040528060008152602001600081525090565b905290565b60005b838110156128055781810151838201526020016127ed565b50506000910152565b600081518084526128268160208601602086016127ea565b601f01601f19169290920160200192915050565b602081526000610b1d602083018461280e565b6001600160a01b0381168114610c0f57600080fd5b6000806040838503121561287557600080fd5b82356128808161284d565b946020939093013593505050565b600060e082840312156128a057600080fd5b50919050565b6000602082840312156128b857600080fd5b81356001600160401b038111156128ce57600080fd5b6111868482850161288e565b8351815260208085015190820152600060a0820160a0604084015280855180835260c08501915060c08160051b86010192506020870160005b8281101561295b5760bf198786030184528151805186526020810151905060406020870152612945604087018261280e565b9550506020938401939190910190600101612913565b5050855160608601525050602084015160808401529050611186565b6000606082840312156128a057600080fd5b60008083601f84011261299b57600080fd5b5081356001600160401b038111156129b257600080fd5b6020830191508360208285010111156129ca57600080fd5b9250929050565b600080600080600080600060e0888a0312156129ec57600080fd5b6129f68989612977565b96506060880135955060808801356001600160401b03811115612a1857600080fd5b612a248a828b01612989565b90965094505060a0880135612a388161284d565b925060c08801356001600160401b03811115612a5357600080fd5b612a5f8a828b01612989565b989b979a50959850939692959293505050565b600080600060608486031215612a8757600080fd5b8335612a928161284d565b92506020840135612aa28161284d565b929592945050506040919091013590565b600060208284031215612ac557600080fd5b5035919050565b803563ffffffff81168114612ae057600080fd5b919050565b60008060408385031215612af857600080fd5b61288083612acc565b8015158114610c0f57600080fd5b60008060408385031215612b2257600080fd5b82356001600160401b03811115612b3857600080fd5b612b448582860161288e565b9250506020830135612b5581612b01565b809150509250929050565b815181526020808301519082015260408101610967565b803561ffff81168114612ae057600080fd5b60008060408385031215612b9c57600080fd5b612ba583612acc565b9150612bb360208401612b77565b90509250929050565b600060208284031215612bce57600080fd5b8135610b1d8161284d565b60008083601f840112612beb57600080fd5b5081356001600160401b03811115612c0257600080fd5b6020830191508360208260051b85010111156129ca57600080fd5b60008060208385031215612c3057600080fd5b82356001600160401b03811115612c4657600080fd5b612c5285828601612bd9565b90969095509350505050565b600060208284031215612c7057600080fd5b610b1d82612acc565b60008060008060608587031215612c8f57600080fd5b612c9885612acc565b9350612ca660208601612b77565b925060408501356001600160401b03811115612cc157600080fd5b612ccd87828801612989565b95989497509550505050565b60008060008385036080811215612cef57600080fd5b84356001600160401b03811115612d0557600080fd5b612d118782880161288e565b9450506040601f1982011215612d2657600080fd5b506020840191506060840135612d3b8161284d565b809150509250925092565b600060c082019050835182526001600160401b0360208501511660208301526040840151612d81604084018280518252602090810151910152565b5082516080830152602083015160a0830152610b1d565b60008060408385031215612dab57600080fd5b8235612db68161284d565b91506020830135612b558161284d565b600060608284031215612dd857600080fd5b610b1d8383612977565b600181811c90821680612df657607f821691505b6020821081036128a057634e487b7160e01b600052602260045260246000fd5b634e487b7160e01b600052604160045260246000fd5b634e487b7160e01b600052601160045260246000fd5b8082018082111561096757610967612e2c565b634e487b7160e01b600052603260045260246000fd5b60008235605e19833603018112612e8157600080fd5b9190910192915050565b6000808335601e19843603018112612ea257600080fd5b8301803591506001600160401b03821115612ebc57600080fd5b6020019150368190038213156129ca57600080fd5b600060208284031215612ee357600080fd5b610b1d82612b77565b601f821115611e1357806000526020600020601f840160051c81016020851015612f135750805b601f840160051c820191505b818110156115385760008155600101612f1f565b6001600160401b03831115612f4a57612f4a612e16565b612f5e83612f588354612de2565b83612eec565b6000601f841160018114612f925760008515612f7a5750838201355b600019600387901b1c1916600186901b178355611538565b600083815260209020601f19861690835b82811015612fc35786850135825560209485019460019092019101612fa3565b5086821015612fe05760001960f88860031b161c19848701351681555b505060018560011b0183555050505050565b81835281816020850137506000828201602090810191909152601f909101601f19169091010190565b6020808252810182905260006040600584901b830181019083018583605e1936839003015b878210156130f857868503603f19018452823581811261305f57600080fd5b890163ffffffff61306f82612acc565b16865261ffff61308160208301612b77565b1660208701526040810135601e1982360301811261309e57600080fd5b016020810190356001600160401b038111156130b957600080fd5b8036038213156130c857600080fd5b606060408801526130dd606088018284612ff2565b96505050602083019250602084019350600182019150613040565b5092979650505050505050565b6000808585111561311557600080fd5b8386111561312257600080fd5b5050820193919092039150565b600084516131418184602089016127ea565b8201838582376000930192835250909392505050565b602081526000611186602083018486612ff2565b6000823561013e19833603018112612e8157600080fd5b6001600160401b0381168114610c0f57600080fd5b63ffffffff6131a589612acc565b16815260208881013590820152600060408901356131c281613182565b6001600160401b03811660408401525087606083015260e060808301526131ed60e083018789612ff2565b6001600160a01b03861660a084015282810360c084015261320f818587612ff2565b9a9950505050505050505050565b604051601f8201601f191681016001600160401b038111828210171561324557613245612e16565b604052919050565b60006020828403121561325f57600080fd5b81516001600160401b0381111561327557600080fd5b8201601f8101841361328657600080fd5b80516001600160401b0381111561329f5761329f612e16565b6132b2601f8201601f191660200161321d565b8181528560208385010111156132c757600080fd5b61206e8260208301602086016127ea565b8181038181111561096757610967612e2c565b6000602082840312156132fd57600080fd5b8135610b1d81613182565b60018060a01b038516815283602082015261ffff83166040820152608060608201526000610cef608083018461280e565b60408152600061334c604083018561280e565b828103602084015261206e818561280e565b60006020828403121561337057600080fd5b8151610b1d81612b01565b6040815263ffffffff8351166040820152602083015160608201526000604084015160a060808401526133b160e084018261280e565b90506060850151603f198483030160a08501526133ce828261280e565b60809690960151151560c08501525050506001600160a01b039190911660209091015290565b60006040828403121561340657600080fd5b604080519081016001600160401b038111828210171561342857613428612e16565b604052825181526020928301519281019290925250919050565b60006040828403121561345457600080fd5b610b1d83836133f4565b80356001600160f01b0319811690600284101561348f576001600160f01b0319600285900360031b81901b82161691505b5092915050565b600060808284031280156134a957600080fd5b50604051606081016001600160401b03811182821017156134cc576134cc612e16565b6040528251815260208301516134e181613182565b60208201526134f384604085016133f4565b60408201529392505050565b60008261351c57634e487b7160e01b600052601260045260246000fd5b500490565b808202811582820484141761096757610967612e2c565b8035602083101561096757600019602084900360031b1b1692915050565b80356001600160c01b0319811690600884101561348f576001600160c01b031960089490940360031b84901b1690921692915050565b6001600160401b0360c01b8560c01b16815263ffffffff60e01b8460e01b16600882015282600c820152600082516135cb81602c8501602087016127ea565b91909101602c0195945050505050565b8481526001600160401b0360c01b8460c01b1660208201528260288201526000825161360e8160488501602087016127ea565b9190910160480195945050505050565b60006020828403121561363057600080fd5b8151610b1d8161284d565b60008251612e818184602087016127ea56fea264697066735822122000738f9eebb75d81701667e8eeba5dd1f9726c0fec4fff0283e96927235b29fe64736f6c634300081a0033",
    "linkReferences": {}
  },
  "methodIdentifiers": {
    "SEND()": "1f5e1334",
    "SEND_AND_CALL()": "134d4f25",
    "allowInitializePath((uint32,bytes32,uint64))": "ff7bd03d",
    "allowance(address,address)": "dd62ed3e",
    "approvalRequired()": "9f68b964",
    "approve(address,uint256)": "095ea7b3",
    "balanceOf(address)": "70a08231",
    "combineOptions(uint32,uint16,bytes)": "bc70b354",
    "composeMsgSender()": "b92d0eff",
    "decimalConversionRate()": "963efcaa",
    "decimals()": "313ce567",
    "decreaseAllowance(address,uint256)": "a457c2d7",
    "deposit()": "d0e30db0",
    "endpoint()": "5e280f11",
    "enforcedOptions(uint32,uint16)": "5535d461",
    "increaseAllowance(address,uint256)": "39509351",
    "isPeer(uint32,bytes32)": "5a0dfe4d",
    "lzReceive((uint32,bytes32,uint64),bytes32,bytes,address,bytes)": "13137d65",
    "lzReceiveAndRevert(((uint32,bytes32,uint64),uint32,address,bytes32,uint256,address,bytes,bytes)[])": "bd815db0",
    "lzReceiveSimulate((uint32,bytes32,uint64),bytes32,bytes,address,bytes)": "d045a0dc",
    "msgInspector()": "111ecdad",
    "name()": "06fdde03",
    "nextNonce(uint32,bytes32)": "7d25a05e",
    "oApp()": "52ae2879",
    "oAppVersion()": "17442b70",
    "oftVersion()": "156a0d0f",
    "owner()": "8da5cb5b",
    "peers(uint32)": "bb0b6a53",
    "preCrime()": "b731ea0a",
    "quoteOFT((uint32,bytes32,uint256,uint256,bytes,bytes,bytes))": "0d35b415",
    "quoteSend((uint32,bytes32,uint256,uint256,bytes,bytes,bytes),bool)": "3b6f743b",
    "renounceOwnership()": "715018a6",
    "send((uint32,bytes32,uint256,uint256,bytes,bytes,bytes),(uint256,uint256),address)": "c7c7f5b3",
    "setDelegate(address)": "ca5eb5e1",
    "setEnforcedOptions((uint32,uint16,bytes)[])": "b98bd070",
    "setMsgInspector(address)": "6fc1b31e",
    "setPeer(uint32,bytes32)": "3400288b",
    "setPreCrime(address)": "d4243885",
    "sharedDecimals()": "857749b0",
    "symbol()": "95d89b41",
    "token()": "fc0c546a",
    "totalSupply()": "18160ddd",
    "transfer(address,uint256)": "a9059cbb",
    "transferFrom(address,address,uint256)": "23b872dd",
    "transferOwnership(address)": "f2fde38b",
    "withdraw(uint256)": "2e1a7d4d"
  },
  "id": 175
}