{
  "address": "0xdb8e759859058952c34953c8469f464109826e52",
  "abi": [
    {
      "type": "constructor",
      "inputs": [
        {
          "name": "_token",
          "type": "address",
          "internalType": "address"
        },
        {
          "name": "_layerZeroEndpoint",
          "type": "address",
          "internalType": "address"
        },
        {
          "name": "_owner",
          "type": "address",
          "internalType": "address"
        },
        {
          "name": "_bridge",
          "type": "address",
          "internalType": "contract IERC20Bridge"
        }
      ],
      "stateMutability": "nonpayable"
    },
    {
      "type": "function",
      "name": "SEND",
      "inputs": [],
      "outputs": [
        {
          "name": "",
          "type": "uint16",
          "internalType": "uint16"
        }
      ],
      "stateMutability": "view"
    },
    {
      "type": "function",
      "name": "SEND_AND_CALL",
      "inputs": [],
      "outputs": [
        {
          "name": "",
          "type": "uint16",
          "internalType": "uint16"
        }
      ],
      "stateMutability": "view"
    },
    {
      "type": "function",
      "name": "allowInitializePath",
      "inputs": [
        {
          "name": "origin",
          "type": "tuple",
          "internalType": "struct Origin",
          "components": [
            {
              "name": "srcEid",
              "type": "uint32",
              "internalType": "uint32"
            },
            {
              "name": "sender",
              "type": "bytes32",
              "internalType": "bytes32"
            },
            {
              "name": "nonce",
              "type": "uint64",
              "internalType": "uint64"
            }
          ]
        }
      ],
      "outputs": [
        {
          "name": "",
          "type": "bool",
          "internalType": "bool"
        }
      ],
      "stateMutability": "view"
    },
    {
      "type": "function",
      "name": "approvalRequired",
      "inputs": [],
      "outputs": [
        {
          "name": "",
          "type": "bool",
          "internalType": "bool"
        }
      ],
      "stateMutability": "pure"
    },
    {
      "type": "function",
      "name": "combineOptions",
      "inputs": [
        {
          "name": "_eid",
          "type": "uint32",
          "internalType": "uint32"
        },
        {
          "name": "_msgType",
          "type": "uint16",
          "internalType": "uint16"
        },
        {
          "name": "_extraOptions",
          "type": "bytes",
          "internalType": "bytes"
        }
      ],
      "outputs": [
        {
          "name": "",
          "type": "bytes",
          "internalType": "bytes"
        }
      ],
      "stateMutability": "view"
    },
    {
      "type": "function",
      "name": "composeMsgSender",
      "inputs": [],
      "outputs": [
        {
          "name": "sender",
          "type": "address",
          "internalType": "address"
        }
      ],
      "stateMutability": "view"
    },
    {
      "type": "function",
      "name": "decimalConversionRate",
      "inputs": [],
      "outputs": [
        {
          "name": "",
          "type": "uint256",
          "internalType": "uint256"
        }
      ],
      "stateMutability": "view"
    },
    {
      "type": "function",
      "name": "endpoint",
      "inputs": [],
      "outputs": [
        {
          "name": "",
          "type": "address",
          "internalType": "contract ILayerZeroEndpointV2"
        }
      ],
      "stateMutability": "view"
    },
    {
      "type": "function",
      "name": "enforcedOptions",
      "inputs": [
        {
          "name": "eid",
          "type": "uint32",
          "internalType": "uint32"
        },
        {
          "name": "msgType",
          "type": "uint16",
          "internalType": "uint16"
        }
      ],
      "outputs": [
        {
          "name": "enforcedOption",
          "type": "bytes",
          "internalType": "bytes"
        }
      ],
      "stateMutability": "view"
    },
    {
      "type": "function",
      "name": "isPeer",
      "inputs": [
        {
          "name": "_eid",
          "type": "uint32",
          "internalType": "uint32"
        },
        {
          "name": "_peer",
          "type": "bytes32",
          "internalType": "bytes32"
        }
      ],
      "outputs": [
        {
          "name": "",
          "type": "bool",
          "internalType": "bool"
        }
      ],
      "stateMutability": "view"
    },
    {
      "type": "function",
      "name": "lzReceive",
      "inputs": [
        {
          "name": "_origin",
          "type": "tuple",
          "internalType": "struct Origin",
          "components": [
            {
              "name": "srcEid",
              "type": "uint32",
              "internalType": "uint32"
            },
            {
              "name": "sender",
              "type": "bytes32",
              "internalType": "bytes32"
            },
            {
              "name": "nonce",
              "type": "uint64",
              "internalType": "uint64"
            }
          ]
        },
        {
          "name": "_guid",
          "type": "bytes32",
          "internalType": "bytes32"
        },
        {
          "name": "_message",
          "type": "bytes",
          "internalType": "bytes"
        },
        {
          "name": "_executor",
          "type": "address",
          "internalType": "address"
        },
        {
          "name": "_extraData",
          "type": "bytes",
          "internalType": "bytes"
        }
      ],
      "outputs": [],
      "stateMutability": "payable"
    },
    {
      "type": "function",
      "name": "lzReceiveAndRevert",
      "inputs": [
        {
          "name": "_packets",
          "type": "tuple[]",
          "internalType": "struct InboundPacket[]",
          "components": [
            {
              "name": "origin",
              "type": "tuple",
              "internalType": "struct Origin",
              "components": [
                {
                  "name": "srcEid",
                  "type": "uint32",
                  "internalType": "uint32"
                },
                {
                  "name": "sender",
                  "type": "bytes32",
                  "internalType": "bytes32"
                },
                {
                  "name": "nonce",
                  "type": "uint64",
                  "internalType": "uint64"
                }
              ]
            },
            {
              "name": "dstEid",
              "type": "uint32",
              "internalType": "uint32"
            },
            {
              "name": "receiver",
              "type": "address",
              "internalType": "address"
            },
            {
              "name": "guid",
              "type": "bytes32",
              "internalType": "bytes32"
            },
            {
              "name": "value",
              "type": "uint256",
              "internalType": "uint256"
            },
            {
              "name": "executor",
              "type": "address",
              "internalType": "address"
            },
            {
              "name": "message",
              "type": "bytes",
              "internalType": "bytes"
            },
            {
              "name": "extraData",
              "type": "bytes",
              "internalType": "bytes"
            }
          ]
        }
      ],
      "outputs": [],
      "stateMutability": "payable"
    },
    {
      "type": "function",
      "name": "lzReceiveSimulate",
      "inputs": [
        {
          "name": "_origin",
          "type": "tuple",
          "internalType": "struct Origin",
          "components": [
            {
              "name": "srcEid",
              "type": "uint32",
              "internalType": "uint32"
            },
            {
              "name": "sender",
              "type": "bytes32",
              "internalType": "bytes32"
            },
            {
              "name": "nonce",
              "type": "uint64",
              "internalType": "uint64"
            }
          ]
        },
        {
          "name": "_guid",
          "type": "bytes32",
          "internalType": "bytes32"
        },
        {
          "name": "_message",
          "type": "bytes",
          "internalType": "bytes"
        },
        {
          "name": "_executor",
          "type": "address",
          "internalType": "address"
        },
        {
          "name": "_extraData",
          "type": "bytes",
          "internalType": "bytes"
        }
      ],
      "outputs": [],
      "stateMutability": "payable"
    },
    {
      "type": "function",
      "name": "msgInspector",
      "inputs": [],
      "outputs": [
        {
          "name": "",
          "type": "address",
          "internalType": "address"
        }
      ],
      "stateMutability": "view"
    },
    {
      "type": "function",
      "name": "nextNonce",
      "inputs": [
        {
          "name": "",
          "type": "uint32",
          "internalType": "uint32"
        },
        {
          "name": "",
          "type": "bytes32",
          "internalType": "bytes32"
        }
      ],
      "outputs": [
        {
          "name": "nonce",
          "type": "uint64",
          "internalType": "uint64"
        }
      ],
      "stateMutability": "view"
    },
    {
      "type": "function",
      "name": "oApp",
      "inputs": [],
      "outputs": [
        {
          "name": "",
          "type": "address",
          "internalType": "address"
        }
      ],
      "stateMutability": "view"
    },
    {
      "type": "function",
      "name": "oAppVersion",
      "inputs": [],
      "outputs": [
        {
          "name": "senderVersion",
          "type": "uint64",
          "internalType": "uint64"
        },
        {
          "name": "receiverVersion",
          "type": "uint64",
          "internalType": "uint64"
        }
      ],
      "stateMutability": "pure"
    },
    {
      "type": "function",
      "name": "oftVersion",
      "inputs": [],
      "outputs": [
        {
          "name": "interfaceId",
          "type": "bytes4",
          "internalType": "bytes4"
        },
        {
          "name": "version",
          "type": "uint64",
          "internalType": "uint64"
        }
      ],
      "stateMutability": "pure"
    },
    {
      "type": "function",
      "name": "owner",
      "inputs": [],
      "outputs": [
        {
          "name": "",
          "type": "address",
          "internalType": "address"
        }
      ],
      "stateMutability": "view"
    },
    {
      "type": "function",
      "name": "peers",
      "inputs": [
        {
          "name": "eid",
          "type": "uint32",
          "internalType": "uint32"
        }
      ],
      "outputs": [
        {
          "name": "peer",
          "type": "bytes32",
          "internalType": "bytes32"
        }
      ],
      "stateMutability": "view"
    },
    {
      "type": "function",
      "name": "preCrime",
      "inputs": [],
      "outputs": [
        {
          "name": "",
          "type": "address",
          "internalType": "address"
        }
      ],
      "stateMutability": "view"
    },
    {
      "type": "function",
      "name": "quoteOFT",
      "inputs": [
        {
          "name": "_sendParam",
          "type": "tuple",
          "internalType": "struct SendParam",
          "components": [
            {
              "name": "dstEid",
              "type": "uint32",
              "internalType": "uint32"
            },
            {
              "name": "to",
              "type": "bytes32",
              "internalType": "bytes32"
            },
            {
              "name": "amountLD",
              "type": "uint256",
              "internalType": "uint256"
            },
            {
              "name": "minAmountLD",
              "type": "uint256",
              "internalType": "uint256"
            },
            {
              "name": "extraOptions",
              "type": "bytes",
              "internalType": "bytes"
            },
            {
              "name": "composeMsg",
              "type": "bytes",
              "internalType": "bytes"
            },
            {
              "name": "oftCmd",
              "type": "bytes",
              "internalType": "bytes"
            }
          ]
        }
      ],
      "outputs": [
        {
          "name": "oftLimit",
          "type": "tuple",
          "internalType": "struct OFTLimit",
          "components": [
            {
              "name": "minAmountLD",
              "type": "uint256",
              "internalType": "uint256"
            },
            {
              "name": "maxAmountLD",
              "type": "uint256",
              "internalType": "uint256"
            }
          ]
        },
        {
          "name": "oftFeeDetails",
          "type": "tuple[]",
          "internalType": "struct OFTFeeDetail[]",
          "components": [
            {
              "name": "feeAmountLD",
              "type": "int256",
              "internalType": "int256"
            },
            {
              "name": "description",
              "type": "string",
              "internalType": "string"
            }
          ]
        },
        {
          "name": "oftReceipt",
          "type": "tuple",
          "internalType": "struct OFTReceipt",
          "components": [
            {
              "name": "amountSentLD",
              "type": "uint256",
              "internalType": "uint256"
            },
            {
              "name": "amountReceivedLD",
              "type": "uint256",
              "internalType": "uint256"
            }
          ]
        }
      ],
      "stateMutability": "view"
    },
    {
      "type": "function",
      "name": "quoteSend",
      "inputs": [
        {
          "name": "_sendParam",
          "type": "tuple",
          "internalType": "struct SendParam",
          "components": [
            {
              "name": "dstEid",
              "type": "uint32",
              "internalType": "uint32"
            },
            {
              "name": "to",
              "type": "bytes32",
              "internalType": "bytes32"
            },
            {
              "name": "amountLD",
              "type": "uint256",
              "internalType": "uint256"
            },
            {
              "name": "minAmountLD",
              "type": "uint256",
              "internalType": "uint256"
            },
            {
              "name": "extraOptions",
              "type": "bytes",
              "internalType": "bytes"
            },
            {
              "name": "composeMsg",
              "type": "bytes",
              "internalType": "bytes"
            },
            {
              "name": "oftCmd",
              "type": "bytes",
              "internalType": "bytes"
            }
          ]
        },
        {
          "name": "_payInLzToken",
          "type": "bool",
          "internalType": "bool"
        }
      ],
      "outputs": [
        {
          "name": "msgFee",
          "type": "tuple",
          "internalType": "struct MessagingFee",
          "components": [
            {
              "name": "nativeFee",
              "type": "uint256",
              "internalType": "uint256"
            },
            {
              "name": "lzTokenFee",
              "type": "uint256",
              "internalType": "uint256"
            }
          ]
        }
      ],
      "stateMutability": "view"
    },
    {
      "type": "function",
      "name": "renounceOwnership",
      "inputs": [],
      "outputs": [],
      "stateMutability": "nonpayable"
    },
    {
      "type": "function",
      "name": "send",
      "inputs": [
        {
          "name": "_sendParam",
          "type": "tuple",
          "internalType": "struct SendParam",
          "components": [
            {
              "name": "dstEid",
              "type": "uint32",
              "internalType": "uint32"
            },
            {
              "name": "to",
              "type": "bytes32",
              "internalType": "bytes32"
            },
            {
              "name": "amountLD",
              "type": "uint256",
              "internalType": "uint256"
            },
            {
              "name": "minAmountLD",
              "type": "uint256",
              "internalType": "uint256"
            },
            {
              "name": "extraOptions",
              "type": "bytes",
              "internalType": "bytes"
            },
            {
              "name": "composeMsg",
              "type": "bytes",
              "internalType": "bytes"
            },
            {
              "name": "oftCmd",
              "type": "bytes",
              "internalType": "bytes"
            }
          ]
        },
        {
          "name": "_fee",
          "type": "tuple",
          "internalType": "struct MessagingFee",
          "components": [
            {
              "name": "nativeFee",
              "type": "uint256",
              "internalType": "uint256"
            },
            {
              "name": "lzTokenFee",
              "type": "uint256",
              "internalType": "uint256"
            }
          ]
        },
        {
          "name": "_refundAddress",
          "type": "address",
          "internalType": "address"
        }
      ],
      "outputs": [
        {
          "name": "msgReceipt",
          "type": "tuple",
          "internalType": "struct MessagingReceipt",
          "components": [
            {
              "name": "guid",
              "type": "bytes32",
              "internalType": "bytes32"
            },
            {
              "name": "nonce",
              "type": "uint64",
              "internalType": "uint64"
            },
            {
              "name": "fee",
              "type": "tuple",
              "internalType": "struct MessagingFee",
              "components": [
                {
                  "name": "nativeFee",
                  "type": "uint256",
                  "internalType": "uint256"
                },
                {
                  "name": "lzTokenFee",
                  "type": "uint256",
                  "internalType": "uint256"
                }
              ]
            }
          ]
        },
        {
          "name": "oftReceipt",
          "type": "tuple",
          "internalType": "struct OFTReceipt",
          "components": [
            {
              "name": "amountSentLD",
              "type": "uint256",
              "internalType": "uint256"
            },
            {
              "name": "amountReceivedLD",
              "type": "uint256",
              "internalType": "uint256"
            }
          ]
        }
      ],
      "stateMutability": "payable"
    },
    {
      "type": "function",
      "name": "setDelegate",
      "inputs": [
        {
          "name": "_delegate",
          "type": "address",
          "internalType": "address"
        }
      ],
      "outputs": [],
      "stateMutability": "nonpayable"
    },
    {
      "type": "function",
      "name": "setEnforcedOptions",
      "inputs": [
        {
          "name": "_enforcedOptions",
          "type": "tuple[]",
          "internalType": "struct EnforcedOptionParam[]",
          "components": [
            {
              "name": "eid",
              "type": "uint32",
              "internalType": "uint32"
            },
            {
              "name": "msgType",
              "type": "uint16",
              "internalType": "uint16"
            },
            {
              "name": "options",
              "type": "bytes",
              "internalType": "bytes"
            }
          ]
        }
      ],
      "outputs": [],
      "stateMutability": "nonpayable"
    },
    {
      "type": "function",
      "name": "setMsgInspector",
      "inputs": [
        {
          "name": "_msgInspector",
          "type": "address",
          "internalType": "address"
        }
      ],
      "outputs": [],
      "stateMutability": "nonpayable"
    },
    {
      "type": "function",
      "name": "setPeer",
      "inputs": [
        {
          "name": "_eid",
          "type": "uint32",
          "internalType": "uint32"
        },
        {
          "name": "_peer",
          "type": "bytes32",
          "internalType": "bytes32"
        }
      ],
      "outputs": [],
      "stateMutability": "nonpayable"
    },
    {
      "type": "function",
      "name": "setPreCrime",
      "inputs": [
        {
          "name": "_preCrime",
          "type": "address",
          "internalType": "address"
        }
      ],
      "outputs": [],
      "stateMutability": "nonpayable"
    },
    {
      "type": "function",
      "name": "sharedDecimals",
      "inputs": [],
      "outputs": [
        {
          "name": "",
          "type": "uint8",
          "internalType": "uint8"
        }
      ],
      "stateMutability": "pure"
    },
    {
      "type": "function",
      "name": "token",
      "inputs": [],
      "outputs": [
        {
          "name": "",
          "type": "address",
          "internalType": "address"
        }
      ],
      "stateMutability": "view"
    },
    {
      "type": "function",
      "name": "transferOwnership",
      "inputs": [
        {
          "name": "newOwner",
          "type": "address",
          "internalType": "address"
        }
      ],
      "outputs": [],
      "stateMutability": "nonpayable"
    },
    {
      "type": "event",
      "name": "EnforcedOptionSet",
      "inputs": [
        {
          "name": "_enforcedOptions",
          "type": "tuple[]",
          "indexed": false,
          "internalType": "struct EnforcedOptionParam[]",
          "components": [
            {
              "name": "eid",
              "type": "uint32",
              "internalType": "uint32"
            },
            {
              "name": "msgType",
              "type": "uint16",
              "internalType": "uint16"
            },
            {
              "name": "options",
              "type": "bytes",
              "internalType": "bytes"
            }
          ]
        }
      ],
      "anonymous": false
    },
    {
      "type": "event",
      "name": "MsgInspectorSet",
      "inputs": [
        {
          "name": "inspector",
          "type": "address",
          "indexed": false,
          "internalType": "address"
        }
      ],
      "anonymous": false
    },
    {
      "type": "event",
      "name": "OFTReceived",
      "inputs": [
        {
          "name": "guid",
          "type": "bytes32",
          "indexed": true,
          "internalType": "bytes32"
        },
        {
          "name": "srcEid",
          "type": "uint32",
          "indexed": false,
          "internalType": "uint32"
        },
        {
          "name": "toAddress",
          "type": "address",
          "indexed": true,
          "internalType": "address"
        },
        {
          "name": "amountReceivedLD",
          "type": "uint256",
          "indexed": false,
          "internalType": "uint256"
        }
      ],
      "anonymous": false
    },
    {
      "type": "event",
      "name": "OFTSent",
      "inputs": [
        {
          "name": "guid",
          "type": "bytes32",
          "indexed": true,
          "internalType": "bytes32"
        },
        {
          "name": "dstEid",
          "type": "uint32",
          "indexed": false,
          "internalType": "uint32"
        },
        {
          "name": "fromAddress",
          "type": "address",
          "indexed": true,
          "internalType": "address"
        },
        {
          "name": "amountSentLD",
          "type": "uint256",
          "indexed": false,
          "internalType": "uint256"
        },
        {
          "name": "amountReceivedLD",
          "type": "uint256",
          "indexed": false,
          "internalType": "uint256"
        }
      ],
      "anonymous": false
    },
    {
      "type": "event",
      "name": "OwnershipTransferred",
      "inputs": [
        {
          "name": "previousOwner",
          "type": "address",
          "indexed": true,
          "internalType": "address"
        },
        {
          "name": "newOwner",
          "type": "address",
          "indexed": true,
          "internalType": "address"
        }
      ],
      "anonymous": false
    },
    {
      "type": "event",
      "name": "PeerSet",
      "inputs": [
        {
          "name": "eid",
          "type": "uint32",
          "indexed": false,
          "internalType": "uint32"
        },
        {
          "name": "peer",
          "type": "bytes32",
          "indexed": false,
          "internalType": "bytes32"
        }
      ],
      "anonymous": false
    },
    {
      "type": "event",
      "name": "PreCrimeSet",
      "inputs": [
        {
          "name": "preCrimeAddress",
          "type": "address",
          "indexed": false,
          "internalType": "address"
        }
      ],
      "anonymous": false
    },
    {
      "type": "error",
      "name": "InvalidDelegate",
      "inputs": []
    },
    {
      "type": "error",
      "name": "InvalidEndpointCall",
      "inputs": []
    },
    {
      "type": "error",
      "name": "InvalidLocalDecimals",
      "inputs": []
    },
    {
      "type": "error",
      "name": "InvalidOptions",
      "inputs": [
        {
          "name": "options",
          "type": "bytes",
          "internalType": "bytes"
        }
      ]
    },
    {
      "type": "error",
      "name": "LzTokenUnavailable",
      "inputs": []
    },
    {
      "type": "error",
      "name": "NoPeer",
      "inputs": [
        {
          "name": "eid",
          "type": "uint32",
          "internalType": "uint32"
        }
      ]
    },
    {
      "type": "error",
      "name": "NotEnoughNative",
      "inputs": [
        {
          "name": "msgValue",
          "type": "uint256",
          "internalType": "uint256"
        }
      ]
    },
    {
      "type": "error",
      "name": "OnlyEndpoint",
      "inputs": [
        {
          "name": "addr",
          "type": "address",
          "internalType": "address"
        }
      ]
    },
    {
      "type": "error",
      "name": "OnlyPeer",
      "inputs": [
        {
          "name": "eid",
          "type": "uint32",
          "internalType": "uint32"
        },
        {
          "name": "sender",
          "type": "bytes32",
          "internalType": "bytes32"
        }
      ]
    },
    {
      "type": "error",
      "name": "OnlySelf",
      "inputs": []
    },
    {
      "type": "error",
      "name": "SimulationResult",
      "inputs": [
        {
          "name": "result",
          "type": "bytes",
          "internalType": "bytes"
        }
      ]
    },
    {
      "type": "error",
      "name": "SlippageExceeded",
      "inputs": [
        {
          "name": "amountLD",
          "type": "uint256",
          "internalType": "uint256"
        },
        {
          "name": "minAmountLD",
          "type": "uint256",
          "internalType": "uint256"
        }
      ]
    }
  ],
  "bytecode": {
    "object": "0x61010060405234801561001157600080fd5b5060405161302c38038061302c8339810160408190526100309161020e565b838383826001600160a01b031663313ce5676040518163ffffffff1660e01b8152600401602060405180830381865afa158015610071573d6000803e3d6000fd5b505050506040513d601f19601f82011682018060405250810190610095919061026d565b8282818181816100a4336101a1565b6001600160a01b0380831660805281166100d157604051632d618d8160e21b815260040160405180910390fd5b60805160405163ca5eb5e160e01b81526001600160a01b0383811660048301529091169063ca5eb5e190602401600060405180830381600087803b15801561011857600080fd5b505af115801561012c573d6000803e3d6000fd5b50505050505050506101426101f160201b60201c565b60ff168360ff161015610168576040516301e9714b60e41b815260040160405180910390fd5b6101736006846102ad565b61017e90600a6103b3565b60a0525050506001600160a01b0392831660c05250501660e052506103c2915050565b600080546001600160a01b038381166001600160a01b0319831681178455604051919092169283917f8be0079c531659141344cd1fd0a4f28419497f9722a3daafe3b4186f6b6457e09190a35050565b600690565b6001600160a01b038116811461020b57600080fd5b50565b6000806000806080858703121561022457600080fd5b845161022f816101f6565b6020860151909450610240816101f6565b6040860151909350610251816101f6565b6060860151909250610262816101f6565b939692955090935050565b60006020828403121561027f57600080fd5b815160ff8116811461029057600080fd5b9392505050565b634e487b7160e01b600052601160045260246000fd5b60ff82811682821603908111156102c6576102c6610297565b92915050565b6001815b6001841115610307578085048111156102eb576102eb610297565b60018416156102f957908102905b60019390931c9280026102d0565b935093915050565b60008261031e575060016102c6565b8161032b575060006102c6565b8160018114610341576002811461034b57610367565b60019150506102c6565b60ff84111561035c5761035c610297565b50506001821b6102c6565b5060208310610133831016604e8410600b841016171561038a575081810a6102c6565b61039760001984846102cc565b80600019048211156103ab576103ab610297565b029392505050565b600061029060ff84168361030f565b60805160a05160c05160e051612bdd61044f60003960008181611634015261184901526000818161064801526116110152600081816104c101528181611768015281816117e4015261194a0152600081816103e30152818161075f01528181610f81015281816112290152818161148f0152818161168c01528181611a750152611b2e0152612bdd6000f3fe6080604052600436106101ee5760003560e01c8063857749b01161010d578063bc70b354116100a0578063d045a0dc1161006f578063d045a0dc146105e6578063d4243885146105f9578063f2fde38b14610619578063fc0c546a14610639578063ff7bd03d1461066c57600080fd5b8063bc70b35414610572578063bd815db014610592578063c7c7f5b3146105a5578063ca5eb5e1146105c657600080fd5b8063b731ea0a116100dc578063b731ea0a14610505578063b92d0eff1461034a578063b98bd07014610525578063bb0b6a531461054557600080fd5b8063857749b0146104755780638da5cb5b14610491578063963efcaa146104af5780639f68b964146104f157600080fd5b80633b6f743b116101855780635e280f11116101545780635e280f11146103d15780636fc1b31e14610405578063715018a6146104255780637d25a05e1461043a57600080fd5b80633b6f743b1461031d57806352ae28791461034a5780635535d4611461035d5780635a0dfe4d1461038a57600080fd5b8063156a0d0f116101c1578063156a0d0f146102a057806317442b70146102c75780631f5e1334146102e85780633400288b146102fd57600080fd5b80630d35b415146101f3578063111ecdad1461022b57806313137d6514610263578063134d4f2514610278575b600080fd5b3480156101ff57600080fd5b5061021361020e366004611d9e565b61068c565b60405161022293929190611e22565b60405180910390f35b34801561023757600080fd5b5060045461024b906001600160a01b031681565b6040516001600160a01b039091168152602001610222565b610276610271366004611f2e565b61075d565b005b34801561028457600080fd5b5061028d600281565b60405161ffff9091168152602001610222565b3480156102ac57600080fd5b506040805162b9270b60e21b81526001602082015201610222565b3480156102d357600080fd5b50604080516001808252602082015201610222565b3480156102f457600080fd5b5061028d600181565b34801561030957600080fd5b50610276610318366004611fe8565b61081d565b34801561032957600080fd5b5061033d610338366004612020565b61087b565b6040516102229190612071565b34801561035657600080fd5b503061024b565b34801561036957600080fd5b5061037d61037836600461209a565b6108e4565b60405161022291906120cd565b34801561039657600080fd5b506103c16103a5366004611fe8565b63ffffffff919091166000908152600160205260409020541490565b6040519015158152602001610222565b3480156103dd57600080fd5b5061024b7f000000000000000000000000000000000000000000000000000000000000000081565b34801561041157600080fd5b506102766104203660046120e0565b610989565b34801561043157600080fd5b506102766109e6565b34801561044657600080fd5b5061045d610455366004611fe8565b600092915050565b6040516001600160401b039091168152602001610222565b34801561048157600080fd5b5060405160068152602001610222565b34801561049d57600080fd5b506000546001600160a01b031661024b565b3480156104bb57600080fd5b506104e37f000000000000000000000000000000000000000000000000000000000000000081565b604051908152602001610222565b3480156104fd57600080fd5b5060016103c1565b34801561051157600080fd5b5060025461024b906001600160a01b031681565b34801561053157600080fd5b50610276610540366004612141565b6109fa565b34801561055157600080fd5b506104e3610560366004612182565b60016020526000908152604090205481565b34801561057e57600080fd5b5061037d61058d36600461219d565b610b5b565b6102766105a0366004612141565b610cd6565b6105b86105b33660046121fd565b610e60565b60405161022292919061226a565b3480156105d257600080fd5b506102766105e13660046120e0565b610f5a565b6102766105f4366004611f2e565b610fe0565b34801561060557600080fd5b506102766106143660046120e0565b61100f565b34801561062557600080fd5b506102766106343660046120e0565b611065565b34801561064557600080fd5b507f000000000000000000000000000000000000000000000000000000000000000061024b565b34801561067857600080fd5b506103c16106873660046122bc565b6110de565b604080518082019091526000808252602082015260606106bf604051806040016040528060008152602001600081525090565b60408051808201825260008082526001600160401b0360208084018290528451838152908101909452919550918261071a565b6040805180820190915260008152606060208201528152602001906001900390816106f25790505b50935060008061073f604089013560608a013561073a60208c018c612182565b611114565b60408051808201909152918252602082015296989597505050505050565b7f00000000000000000000000000000000000000000000000000000000000000006001600160a01b031633146107ad576040516391ac5e4f60e01b81523360048201526024015b60405180910390fd5b602087018035906107c7906107c2908a612182565b611158565b14610805576107d96020880188612182565b60405163309afaf360e21b815263ffffffff9091166004820152602088013560248201526044016107a4565b61081487878787878787611194565b50505050505050565b6108256112fb565b63ffffffff8216600081815260016020908152604091829020849055815192835282018390527f238399d427b947898edb290f5ff0f9109849b1c3ba196a42e35f00c50a54b98b91015b60405180910390a15050565b604080518082019091526000808252602082015260006108ab6040850135606086013561073a6020880188612182565b9150506000806108bb8684611355565b90925090506108d86108d06020880188612182565b838388611479565b93505050505b92915050565b600360209081526000928352604080842090915290825290208054610908906122ee565b80601f0160208091040260200160405190810160405280929190818152602001828054610934906122ee565b80156109815780601f1061095657610100808354040283529160200191610981565b820191906000526020600020905b81548152906001019060200180831161096457829003601f168201915b505050505081565b6109916112fb565b600480546001600160a01b0319166001600160a01b0383169081179091556040519081527ff0be4f1e87349231d80c36b33f9e8639658eeaf474014dee15a3e6a4d4414197906020015b60405180910390a150565b6109ee6112fb565b6109f8600061155a565b565b610a026112fb565b60005b81811015610b2957610a47838383818110610a2257610a22612322565b9050602002810190610a349190612338565b610a42906040810190612358565b6115aa565b828282818110610a5957610a59612322565b9050602002810190610a6b9190612338565b610a79906040810190612358565b60036000868686818110610a8f57610a8f612322565b9050602002810190610aa19190612338565b610aaf906020810190612182565b63ffffffff1663ffffffff1681526020019081526020016000206000868686818110610add57610add612322565b9050602002810190610aef9190612338565b610b0090604081019060200161239e565b61ffff168152602081019190915260400160002091610b20919083612400565b50600101610a05565b507fbe4864a8e820971c0247f5992e2da559595f7bf076a21cb5928d443d2a13b674828260405161086f9291906124e8565b63ffffffff8416600090815260036020908152604080832061ffff87168452909152812080546060929190610b8f906122ee565b80601f0160208091040260200160405190810160405280929190818152602001828054610bbb906122ee565b8015610c085780601f10610bdd57610100808354040283529160200191610c08565b820191906000526020600020905b815481529060010190602001808311610beb57829003601f168201915b505050505090508051600003610c585783838080601f016020809104026020016040519081016040528093929190818152602001838380828437600092019190915250929450610cce9350505050565b6000839003610c68579050610cce565b60028310610cb157610c7a84846115aa565b80610c8884600281886125d2565b604051602001610c9a939291906125fc565b604051602081830303815290604052915050610cce565b8383604051639a6d49cd60e01b81526004016107a4929190612624565b949350505050565b60005b81811015610ddf5736838383818110610cf457610cf4612322565b9050602002810190610d069190612638565b9050610d39610d186020830183612182565b602083013563ffffffff919091166000908152600160205260409020541490565b610d435750610dd7565b3063d045a0dc60c08301358360a0810135610d62610100830183612358565b610d73610100890160e08a016120e0565b610d816101208a018a612358565b6040518963ffffffff1660e01b8152600401610da39796959493929190612664565b6000604051808303818588803b158015610dbc57600080fd5b505af1158015610dd0573d6000803e3d6000fd5b5050505050505b600101610cd9565b50336001600160a01b0316638e9e70996040518163ffffffff1660e01b8152600401600060405180830381865afa158015610e1e573d6000803e3d6000fd5b505050506040513d6000823e601f3d908101601f19168201604052610e469190810190612793565b604051638351eea760e01b81526004016107a491906120cd565b610e68611d3f565b6040805180820190915260008082526020820152600080610e9e60408801356060890135610e9960208b018b612182565b6115f1565b91509150600080610eaf8984611355565b9092509050610edb610ec460208b018b612182565b8383610ed5368d90038d018d6127c7565b8b611659565b60408051808201909152858152602080820186905282519298509096503391907f85496b760a4b7f8d66384b9df21b381f5d1b1e79f229a47aaf4c232edc2fe59a90610f29908d018d612182565b6040805163ffffffff909216825260208201899052810187905260600160405180910390a350505050935093915050565b610f626112fb565b60405163ca5eb5e160e01b81526001600160a01b0382811660048301527f0000000000000000000000000000000000000000000000000000000000000000169063ca5eb5e190602401600060405180830381600087803b158015610fc557600080fd5b505af1158015610fd9573d6000803e3d6000fd5b5050505050565b3330146110005760405163029a949d60e31b815260040160405180910390fd5b61081487878787878787610805565b6110176112fb565b600280546001600160a01b0319166001600160a01b0383169081179091556040519081527fd48d879cef83a1c0bdda516f27b13ddb1b3f8bbac1c9e1511bb2a659c2427760906020016109db565b61106d6112fb565b6001600160a01b0381166110d25760405162461bcd60e51b815260206004820152602660248201527f4f776e61626c653a206e6577206f776e657220697320746865207a65726f206160448201526564647265737360d01b60648201526084016107a4565b6110db8161155a565b50565b60006020820180359060019083906110f69086612182565b63ffffffff1681526020810191909152604001600020541492915050565b60008061112085611764565b915081905083811015611150576040516371c4efed60e01b815260048101829052602481018590526044016107a4565b935093915050565b63ffffffff8116600090815260016020526040812054806108de5760405163f6ff4fb760e01b815263ffffffff841660048201526024016107a4565b60006111a66111a3878761179b565b90565b905060006111d2826111c06111bb8a8a6117ba565b6117dd565b6111cd60208d018d612182565b611812565b9050602886111561129957600061120f6111f260608c0160408d016127fa565b6111ff60208d018d612182565b8461120a8c8c6118c6565b611911565b604051633e5ac80960e11b81529091506001600160a01b037f00000000000000000000000000000000000000000000000000000000000000001690637cb59012906112659086908d906000908790600401612817565b600060405180830381600087803b15801561127f57600080fd5b505af1158015611293573d6000803e3d6000fd5b50505050505b6001600160a01b038216887fefed6d3500546b29533b128a29e3a94d70788727f0507505ac12eaf2e578fd9c6112d260208d018d612182565b6040805163ffffffff9092168252602082018690520160405180910390a3505050505050505050565b6000546001600160a01b031633146109f85760405162461bcd60e51b815260206004820181905260248201527f4f776e61626c653a2063616c6c6572206973206e6f7420746865206f776e657260448201526064016107a4565b60608060006113b2856020013561136b86611943565b61137860a0890189612358565b8080601f01602080910402602001604051908101604052809392919081815260200183838082843760009201919091525061196f92505050565b90935090506000816113c55760016113c8565b60025b90506113e86113da6020880188612182565b8261058d60808a018a612358565b6004549093506001600160a01b031615611470576004805460405163043a78eb60e01b81526001600160a01b039091169163043a78eb9161142d918891889101612852565b602060405180830381865afa15801561144a573d6000803e3d6000fd5b505050506040513d601f19601f8201168201806040525081019061146e9190612877565b505b50509250929050565b60408051808201909152600080825260208201527f00000000000000000000000000000000000000000000000000000000000000006001600160a01b031663ddc28c586040518060a001604052808863ffffffff1681526020016114dc89611158565b8152602001878152602001868152602001851515815250306040518363ffffffff1660e01b8152600401611511929190612894565b6040805180830381865afa15801561152d573d6000803e3d6000fd5b505050506040513d601f19601f82011682018060405250810190611551919061293e565b95945050505050565b600080546001600160a01b038381166001600160a01b0319831681178455604051919092169283917f8be0079c531659141344cd1fd0a4f28419497f9722a3daafe3b4186f6b6457e09190a35050565b60006115b960028284866125d2565b6115c29161295a565b60f01c9050600381146115ec578282604051639a6d49cd60e01b81526004016107a4929190612624565b505050565b6000806115ff858585611114565b90925090506111506001600160a01b037f000000000000000000000000000000000000000000000000000000000000000016337f0000000000000000000000000000000000000000000000000000000000000000856119e9565b611661611d3f565b60006116708460000151611a49565b60208501519091501561168a5761168a8460200151611a71565b7f00000000000000000000000000000000000000000000000000000000000000006001600160a01b0316632637a450826040518060a001604052808b63ffffffff1681526020016116da8c611158565b81526020018a815260200189815260200160008960200151111515815250866040518463ffffffff1660e01b8152600401611716929190612894565b60806040518083038185885af1158015611734573d6000803e3d6000fd5b50505050506040513d601f19601f820116820180604052508101906117599190612992565b979650505050505050565b60007f000000000000000000000000000000000000000000000000000000000000000061179181846129fb565b6108de9190612a1d565b60006117aa60208284866125d2565b6117b391612a42565b9392505050565b60006117ca6028602084866125d2565b6117d391612a60565b60c01c9392505050565b60006108de7f00000000000000000000000000000000000000000000000000000000000000006001600160401b038416612a1d565b604051639e5d4c4960e01b81526001600160a01b0384811660048301526024820184905260606044830152600060648301819052917f000000000000000000000000000000000000000000000000000000000000000090911690639e5d4c49906084016000604051808303816000875af1158015611894573d6000803e3d6000fd5b505050506040513d6000823e601f3d908101601f191682016040526118bc9190810190612a96565b5092949350505050565b60606118d582602881866125d2565b8080601f016020809104026020016040519081016040528093929190818152602001838380828437600092019190915250929695505050505050565b60608484848460405160200161192a9493929190612ae6565b6040516020818303038152906040529050949350505050565b60006108de7f0000000000000000000000000000000000000000000000000000000000000000836129fb565b80516060901515806119b85784846040516020016119a492919091825260c01b6001600160c01b031916602082015260280190565b6040516020818303038152906040526119df565b848433856040516020016119cf9493929190612b35565b6040516020818303038152906040525b9150935093915050565b604080516001600160a01b0385811660248301528416604482015260648082018490528251808303909101815260849091019091526020810180516001600160e01b03166323b872dd60e01b179052611a43908590611b57565b50505050565b6000813414611a6d576040516304fb820960e51b81523460048201526024016107a4565b5090565b60007f00000000000000000000000000000000000000000000000000000000000000006001600160a01b031663e4fe1d946040518163ffffffff1660e01b8152600401602060405180830381865afa158015611ad1573d6000803e3d6000fd5b505050506040513d601f19601f82011682018060405250810190611af59190612b78565b90506001600160a01b038116611b1e576040516329b99a9560e11b815260040160405180910390fd5b611b536001600160a01b038216337f0000000000000000000000000000000000000000000000000000000000000000856119e9565b5050565b6000611bac826040518060400160405280602081526020017f5361666545524332303a206c6f772d6c6576656c2063616c6c206661696c6564815250856001600160a01b0316611c2c9092919063ffffffff16565b9050805160001480611bcd575080806020019051810190611bcd9190612877565b6115ec5760405162461bcd60e51b815260206004820152602a60248201527f5361666545524332303a204552433230206f7065726174696f6e20646964206e6044820152691bdd081cdd58d8d9595960b21b60648201526084016107a4565b6060610cce848460008585600080866001600160a01b03168587604051611c539190612b95565b60006040518083038185875af1925050503d8060008114611c90576040519150601f19603f3d011682016040523d82523d6000602084013e611c95565b606091505b50915091506117598783838760608315611d10578251600003611d09576001600160a01b0385163b611d095760405162461bcd60e51b815260206004820152601d60248201527f416464726573733a2063616c6c20746f206e6f6e2d636f6e747261637400000060448201526064016107a4565b5081610cce565b610cce8383815115611d255781518083602001fd5b8060405162461bcd60e51b81526004016107a491906120cd565b60405180606001604052806000801916815260200160006001600160401b03168152602001611d81604051806040016040528060008152602001600081525090565b905290565b600060e08284031215611d9857600080fd5b50919050565b600060208284031215611db057600080fd5b81356001600160401b03811115611dc657600080fd5b610cce84828501611d86565b60005b83811015611ded578181015183820152602001611dd5565b50506000910152565b60008151808452611e0e816020860160208601611dd2565b601f01601f19169290920160200192915050565b8351815260208085015190820152600060a0820160a0604084015280855180835260c08501915060c08160051b86010192506020870160005b82811015611ea35760bf198786030184528151805186526020810151905060406020870152611e8d6040870182611df6565b9550506020938401939190910190600101611e5b565b5050855160608601525050602084015160808401529050610cce565b600060608284031215611d9857600080fd5b60008083601f840112611ee357600080fd5b5081356001600160401b03811115611efa57600080fd5b602083019150836020828501011115611f1257600080fd5b9250929050565b6001600160a01b03811681146110db57600080fd5b600080600080600080600060e0888a031215611f4957600080fd5b611f538989611ebf565b96506060880135955060808801356001600160401b03811115611f7557600080fd5b611f818a828b01611ed1565b90965094505060a0880135611f9581611f19565b925060c08801356001600160401b03811115611fb057600080fd5b611fbc8a828b01611ed1565b989b979a50959850939692959293505050565b803563ffffffff81168114611fe357600080fd5b919050565b60008060408385031215611ffb57600080fd5b61200483611fcf565b946020939093013593505050565b80151581146110db57600080fd5b6000806040838503121561203357600080fd5b82356001600160401b0381111561204957600080fd5b61205585828601611d86565b925050602083013561206681612012565b809150509250929050565b8151815260208083015190820152604081016108de565b803561ffff81168114611fe357600080fd5b600080604083850312156120ad57600080fd5b6120b683611fcf565b91506120c460208401612088565b90509250929050565b6020815260006117b36020830184611df6565b6000602082840312156120f257600080fd5b81356117b381611f19565b60008083601f84011261210f57600080fd5b5081356001600160401b0381111561212657600080fd5b6020830191508360208260051b8501011115611f1257600080fd5b6000806020838503121561215457600080fd5b82356001600160401b0381111561216a57600080fd5b612176858286016120fd565b90969095509350505050565b60006020828403121561219457600080fd5b6117b382611fcf565b600080600080606085870312156121b357600080fd5b6121bc85611fcf565b93506121ca60208601612088565b925060408501356001600160401b038111156121e557600080fd5b6121f187828801611ed1565b95989497509550505050565b6000806000838503608081121561221357600080fd5b84356001600160401b0381111561222957600080fd5b61223587828801611d86565b9450506040601f198201121561224a57600080fd5b50602084019150606084013561225f81611f19565b809150509250925092565b600060c082019050835182526001600160401b03602085015116602083015260408401516122a5604084018280518252602090810151910152565b5082516080830152602083015160a08301526117b3565b6000606082840312156122ce57600080fd5b6117b38383611ebf565b634e487b7160e01b600052604160045260246000fd5b600181811c9082168061230257607f821691505b602082108103611d9857634e487b7160e01b600052602260045260246000fd5b634e487b7160e01b600052603260045260246000fd5b60008235605e1983360301811261234e57600080fd5b9190910192915050565b6000808335601e1984360301811261236f57600080fd5b8301803591506001600160401b0382111561238957600080fd5b602001915036819003821315611f1257600080fd5b6000602082840312156123b057600080fd5b6117b382612088565b601f8211156115ec57806000526020600020601f840160051c810160208510156123e05750805b601f840160051c820191505b81811015610fd957600081556001016123ec565b6001600160401b03831115612417576124176122d8565b61242b8361242583546122ee565b836123b9565b6000601f84116001811461245f57600085156124475750838201355b600019600387901b1c1916600186901b178355610fd9565b600083815260209020601f19861690835b828110156124905786850135825560209485019460019092019101612470565b50868210156124ad5760001960f88860031b161c19848701351681555b505060018560011b0183555050505050565b81835281816020850137506000828201602090810191909152601f909101601f19169091010190565b6020808252810182905260006040600584901b830181019083018583605e1936839003015b878210156125c557868503603f19018452823581811261252c57600080fd5b890163ffffffff61253c82611fcf565b16865261ffff61254e60208301612088565b1660208701526040810135601e1982360301811261256b57600080fd5b016020810190356001600160401b0381111561258657600080fd5b80360382131561259557600080fd5b606060408801526125aa6060880182846124bf565b9650505060208301925060208401935060018201915061250d565b5092979650505050505050565b600080858511156125e257600080fd5b838611156125ef57600080fd5b5050820193919092039150565b6000845161260e818460208901611dd2565b8201838582376000930192835250909392505050565b602081526000610cce6020830184866124bf565b6000823561013e1983360301811261234e57600080fd5b6001600160401b03811681146110db57600080fd5b63ffffffff61267289611fcf565b168152602088810135908201526000604089013561268f8161264f565b6001600160401b03811660408401525087606083015260e060808301526126ba60e0830187896124bf565b6001600160a01b03861660a084015282810360c08401526126dc8185876124bf565b9a9950505050505050505050565b604080519081016001600160401b038111828210171561270c5761270c6122d8565b60405290565b600082601f83011261272357600080fd5b81516001600160401b0381111561273c5761273c6122d8565b604051601f8201601f19908116603f011681016001600160401b038111828210171561276a5761276a6122d8565b60405281815283820160200185101561278257600080fd5b610cce826020830160208701611dd2565b6000602082840312156127a557600080fd5b81516001600160401b038111156127bb57600080fd5b610cce84828501612712565b600060408284031280156127da57600080fd5b506127e36126ea565b823581526020928301359281019290925250919050565b60006020828403121561280c57600080fd5b81356117b38161264f565b60018060a01b038516815283602082015261ffff831660408201526080606082015260006128486080830184611df6565b9695505050505050565b6040815260006128656040830185611df6565b82810360208401526115518185611df6565b60006020828403121561288957600080fd5b81516117b381612012565b6040815263ffffffff8351166040820152602083015160608201526000604084015160a060808401526128ca60e0840182611df6565b90506060850151603f198483030160a08501526128e78282611df6565b60809690960151151560c08501525050506001600160a01b039190911660209091015290565b60006040828403121561291f57600080fd5b6129276126ea565b825181526020928301519281019290925250919050565b60006040828403121561295057600080fd5b6117b3838361290d565b80356001600160f01b0319811690600284101561298b576001600160f01b0319600285900360031b81901b82161691505b5092915050565b600060808284031280156129a557600080fd5b50604051606081016001600160401b03811182821017156129c8576129c86122d8565b6040528251815260208301516129dd8161264f565b60208201526129ef846040850161290d565b60408201529392505050565b600082612a1857634e487b7160e01b600052601260045260246000fd5b500490565b80820281158282048414176108de57634e487b7160e01b600052601160045260246000fd5b803560208310156108de57600019602084900360031b1b1692915050565b80356001600160c01b0319811690600884101561298b576001600160c01b031960089490940360031b84901b1690921692915050565b60008060408385031215612aa957600080fd5b8251612ab481612012565b60208401519092506001600160401b03811115612ad057600080fd5b612adc85828601612712565b9150509250929050565b6001600160401b0360c01b8560c01b16815263ffffffff60e01b8460e01b16600882015282600c82015260008251612b2581602c850160208701611dd2565b91909101602c0195945050505050565b8481526001600160401b0360c01b8460c01b16602082015282602882015260008251612b68816048850160208701611dd2565b9190910160480195945050505050565b600060208284031215612b8a57600080fd5b81516117b381611f19565b6000825161234e818460208701611dd256fea2646970667358221220a5f2078d09e89b42382186fe0d0876ce2d0e6ab296541cb9ec092418b4ba565864736f6c634300081a0033",
    "linkReferences": {}
  },
  "methodIdentifiers": {
    "SEND()": "1f5e1334",
    "SEND_AND_CALL()": "134d4f25",
    "allowInitializePath((uint32,bytes32,uint64))": "ff7bd03d",
    "approvalRequired()": "9f68b964",
    "combineOptions(uint32,uint16,bytes)": "bc70b354",
    "composeMsgSender()": "b92d0eff",
    "decimalConversionRate()": "963efcaa",
    "endpoint()": "5e280f11",
    "enforcedOptions(uint32,uint16)": "5535d461",
    "isPeer(uint32,bytes32)": "5a0dfe4d",
    "lzReceive((uint32,bytes32,uint64),bytes32,bytes,address,bytes)": "13137d65",
    "lzReceiveAndRevert(((uint32,bytes32,uint64),uint32,address,bytes32,uint256,address,bytes,bytes)[])": "bd815db0",
    "lzReceiveSimulate((uint32,bytes32,uint64),bytes32,bytes,address,bytes)": "d045a0dc",
    "msgInspector()": "111ecdad",
    "nextNonce(uint32,bytes32)": "7d25a05e",
    "oApp()": "52ae2879",
    "oAppVersion()": "17442b70",
    "oftVersion()": "156a0d0f",
    "owner()": "8da5cb5b",
    "peers(uint32)": "bb0b6a53",
    "preCrime()": "b731ea0a",
    "quoteOFT((uint32,bytes32,uint256,uint256,bytes,bytes,bytes))": "0d35b415",
    "quoteSend((uint32,bytes32,uint256,uint256,bytes,bytes,bytes),bool)": "3b6f743b",
    "renounceOwnership()": "715018a6",
    "send((uint32,bytes32,uint256,uint256,bytes,bytes,bytes),(uint256,uint256),address)": "c7c7f5b3",
    "setDelegate(address)": "ca5eb5e1",
    "setEnforcedOptions((uint32,uint16,bytes)[])": "b98bd070",
    "setMsgInspector(address)": "6fc1b31e",
    "setPeer(uint32,bytes32)": "3400288b",
    "setPreCrime(address)": "d4243885",
    "sharedDecimals()": "857749b0",
    "token()": "fc0c546a",
    "transferOwnership(address)": "f2fde38b"
  },
  "id": 151
}